{
	"contracts/Web3SocialMedia.sol": {
		"Web3SocialMedia": {
			"abi": [
				{
					"anonymous": false,
					"inputs": [
						{
							"indexed": false,
							"internalType": "uint256",
							"name": "id",
							"type": "uint256"
						},
						{
							"indexed": false,
							"internalType": "address",
							"name": "author",
							"type": "address"
						},
						{
							"indexed": false,
							"internalType": "string",
							"name": "content",
							"type": "string"
						},
						{
							"indexed": false,
							"internalType": "uint256",
							"name": "timestamp",
							"type": "uint256"
						}
					],
					"name": "PostCreated",
					"type": "event"
				},
				{
					"anonymous": false,
					"inputs": [
						{
							"indexed": false,
							"internalType": "address",
							"name": "user",
							"type": "address"
						},
						{
							"indexed": false,
							"internalType": "string",
							"name": "newUsername",
							"type": "string"
						}
					],
					"name": "UsernameUpdated",
					"type": "event"
				},
				{
					"inputs": [
						{
							"internalType": "string",
							"name": "_content",
							"type": "string"
						}
					],
					"name": "createPost",
					"outputs": [],
					"stateMutability": "nonpayable",
					"type": "function"
				},
				{
					"inputs": [
						{
							"internalType": "uint256",
							"name": "_id",
							"type": "uint256"
						}
					],
					"name": "getPost",
					"outputs": [
						{
							"components": [
								{
									"internalType": "uint256",
									"name": "id",
									"type": "uint256"
								},
								{
									"internalType": "address",
									"name": "author",
									"type": "address"
								},
								{
									"internalType": "string",
									"name": "content",
									"type": "string"
								},
								{
									"internalType": "uint256",
									"name": "timestamp",
									"type": "uint256"
								}
							],
							"internalType": "struct Web3SocialMedia.Post",
							"name": "",
							"type": "tuple"
						}
					],
					"stateMutability": "view",
					"type": "function"
				},
				{
					"inputs": [],
					"name": "postCount",
					"outputs": [
						{
							"internalType": "uint256",
							"name": "",
							"type": "uint256"
						}
					],
					"stateMutability": "view",
					"type": "function"
				},
				{
					"inputs": [
						{
							"internalType": "uint256",
							"name": "",
							"type": "uint256"
						}
					],
					"name": "posts",
					"outputs": [
						{
							"internalType": "uint256",
							"name": "id",
							"type": "uint256"
						},
						{
							"internalType": "address",
							"name": "author",
							"type": "address"
						},
						{
							"internalType": "string",
							"name": "content",
							"type": "string"
						},
						{
							"internalType": "uint256",
							"name": "timestamp",
							"type": "uint256"
						}
					],
					"stateMutability": "view",
					"type": "function"
				},
				{
					"inputs": [
						{
							"internalType": "string",
							"name": "_username",
							"type": "string"
						}
					],
					"name": "setUsername",
					"outputs": [],
					"stateMutability": "nonpayable",
					"type": "function"
				},
				{
					"inputs": [
						{
							"internalType": "address",
							"name": "",
							"type": "address"
						}
					],
					"name": "usernames",
					"outputs": [
						{
							"internalType": "string",
							"name": "",
							"type": "string"
						}
					],
					"stateMutability": "view",
					"type": "function"
				}
			],
			"devdoc": {
				"kind": "dev",
				"methods": {},
				"version": 1
			},
			"evm": {
				"assembly": "    /* \"contracts/Web3SocialMedia.sol\":58:1152  contract Web3SocialMedia {... */\n  mstore(0x40, 0x80)\n  callvalue\n  dup1\n  iszero\n  tag_1\n  jumpi\n  0x00\n  dup1\n  revert\ntag_1:\n  pop\n  dataSize(sub_0)\n  dup1\n  dataOffset(sub_0)\n  0x00\n  codecopy\n  0x00\n  return\nstop\n\nsub_0: assembly {\n        /* \"contracts/Web3SocialMedia.sol\":58:1152  contract Web3SocialMedia {... */\n      mstore(0x40, 0x80)\n      callvalue\n      dup1\n      iszero\n      tag_1\n      jumpi\n      0x00\n      dup1\n      revert\n    tag_1:\n      pop\n      jumpi(tag_2, lt(calldatasize, 0x04))\n      shr(0xe0, calldataload(0x00))\n      dup1\n      0x0b1e7f83\n      eq\n      tag_3\n      jumpi\n      dup1\n      0x17906c2e\n      eq\n      tag_4\n      jumpi\n      dup1\n      0x40731c24\n      eq\n      tag_5\n      jumpi\n      dup1\n      0xc7303c61\n      eq\n      tag_6\n      jumpi\n      dup1\n      0xed59313a\n      eq\n      tag_7\n      jumpi\n      dup1\n      0xee91877c\n      eq\n      tag_8\n      jumpi\n    tag_2:\n      0x00\n      dup1\n      revert\n        /* \"contracts/Web3SocialMedia.sol\":203:237  mapping(uint => Post) public posts */\n    tag_3:\n      tag_9\n      0x04\n      dup1\n      calldatasize\n      sub\n      dup2\n      add\n      swap1\n      tag_10\n      swap2\n      swap1\n      tag_11\n      jump\t// in\n    tag_10:\n      tag_12\n      jump\t// in\n    tag_9:\n      mload(0x40)\n      tag_13\n      swap5\n      swap4\n      swap3\n      swap2\n      swap1\n      tag_14\n      jump\t// in\n    tag_13:\n      mload(0x40)\n      dup1\n      swap2\n      sub\n      swap1\n      return\n        /* \"contracts/Web3SocialMedia.sol\":243:264  uint public postCount */\n    tag_4:\n      tag_15\n      tag_16\n      jump\t// in\n    tag_15:\n      mload(0x40)\n      tag_17\n      swap2\n      swap1\n      tag_18\n      jump\t// in\n    tag_17:\n      mload(0x40)\n      dup1\n      swap2\n      sub\n      swap1\n      return\n        /* \"contracts/Web3SocialMedia.sol\":780:942  function getPost(uint _id) external view returns (Post memory) {... */\n    tag_5:\n      tag_19\n      0x04\n      dup1\n      calldatasize\n      sub\n      dup2\n      add\n      swap1\n      tag_20\n      swap2\n      swap1\n      tag_11\n      jump\t// in\n    tag_20:\n      tag_21\n      jump\t// in\n    tag_19:\n      mload(0x40)\n      tag_22\n      swap2\n      swap1\n      tag_23\n      jump\t// in\n    tag_22:\n      mload(0x40)\n      dup1\n      swap2\n      sub\n      swap1\n      return\n        /* \"contracts/Web3SocialMedia.sol\":496:738  function createPost(string calldata _content) external {... */\n    tag_6:\n      tag_24\n      0x04\n      dup1\n      calldatasize\n      sub\n      dup2\n      add\n      swap1\n      tag_25\n      swap2\n      swap1\n      tag_26\n      jump\t// in\n    tag_25:\n      tag_27\n      jump\t// in\n    tag_24:\n      stop\n        /* \"contracts/Web3SocialMedia.sol\":990:1150  function setUsername(string calldata _username) external {... */\n    tag_7:\n      tag_28\n      0x04\n      dup1\n      calldatasize\n      sub\n      dup2\n      add\n      swap1\n      tag_29\n      swap2\n      swap1\n      tag_26\n      jump\t// in\n    tag_29:\n      tag_30\n      jump\t// in\n    tag_28:\n      stop\n        /* \"contracts/Web3SocialMedia.sol\":271:314  mapping(address => string) public usernames */\n    tag_8:\n      tag_31\n      0x04\n      dup1\n      calldatasize\n      sub\n      dup2\n      add\n      swap1\n      tag_32\n      swap2\n      swap1\n      tag_33\n      jump\t// in\n    tag_32:\n      tag_34\n      jump\t// in\n    tag_31:\n      mload(0x40)\n      tag_35\n      swap2\n      swap1\n      tag_36\n      jump\t// in\n    tag_35:\n      mload(0x40)\n      dup1\n      swap2\n      sub\n      swap1\n      return\n        /* \"contracts/Web3SocialMedia.sol\":203:237  mapping(uint => Post) public posts */\n    tag_12:\n      mstore(0x20, 0x00)\n      dup1\n      0x00\n      mstore\n      keccak256(0x00, 0x40)\n      0x00\n      swap2\n      pop\n      swap1\n      pop\n      dup1\n      0x00\n      add\n      sload\n      swap1\n      dup1\n      0x01\n      add\n      0x00\n      swap1\n      sload\n      swap1\n      0x0100\n      exp\n      swap1\n      div\n      0xffffffffffffffffffffffffffffffffffffffff\n      and\n      swap1\n      dup1\n      0x02\n      add\n      dup1\n      sload\n      tag_37\n      swap1\n      tag_38\n      jump\t// in\n    tag_37:\n      dup1\n      0x1f\n      add\n      0x20\n      dup1\n      swap2\n      div\n      mul\n      0x20\n      add\n      mload(0x40)\n      swap1\n      dup2\n      add\n      0x40\n      mstore\n      dup1\n      swap3\n      swap2\n      swap1\n      dup2\n      dup2\n      mstore\n      0x20\n      add\n      dup3\n      dup1\n      sload\n      tag_39\n      swap1\n      tag_38\n      jump\t// in\n    tag_39:\n      dup1\n      iszero\n      tag_40\n      jumpi\n      dup1\n      0x1f\n      lt\n      tag_41\n      jumpi\n      0x0100\n      dup1\n      dup4\n      sload\n      div\n      mul\n      dup4\n      mstore\n      swap2\n      0x20\n      add\n      swap2\n      jump(tag_40)\n    tag_41:\n      dup3\n      add\n      swap2\n      swap1\n      0x00\n      mstore\n      keccak256(0x00, 0x20)\n      swap1\n    tag_42:\n      dup2\n      sload\n      dup2\n      mstore\n      swap1\n      0x01\n      add\n      swap1\n      0x20\n      add\n      dup1\n      dup4\n      gt\n      tag_42\n      jumpi\n      dup3\n      swap1\n      sub\n      0x1f\n      and\n      dup3\n      add\n      swap2\n    tag_40:\n      pop\n      pop\n      pop\n      pop\n      pop\n      swap1\n      dup1\n      0x03\n      add\n      sload\n      swap1\n      pop\n      dup5\n      jump\t// out\n        /* \"contracts/Web3SocialMedia.sol\":243:264  uint public postCount */\n    tag_16:\n      sload(0x01)\n      dup2\n      jump\t// out\n        /* \"contracts/Web3SocialMedia.sol\":780:942  function getPost(uint _id) external view returns (Post memory) {... */\n    tag_21:\n        /* \"contracts/Web3SocialMedia.sol\":830:841  Post memory */\n      tag_43\n      tag_44\n      jump\t// in\n    tag_43:\n        /* \"contracts/Web3SocialMedia.sol\":867:868  0 */\n      0x00\n        /* \"contracts/Web3SocialMedia.sol\":861:864  _id */\n      dup3\n        /* \"contracts/Web3SocialMedia.sol\":861:868  _id > 0 */\n      gt\n        /* \"contracts/Web3SocialMedia.sol\":861:888  _id > 0 && _id <= postCount */\n      dup1\n      iszero\n      tag_46\n      jumpi\n      pop\n        /* \"contracts/Web3SocialMedia.sol\":879:888  postCount */\n      sload(0x01)\n        /* \"contracts/Web3SocialMedia.sol\":872:875  _id */\n      dup3\n        /* \"contracts/Web3SocialMedia.sol\":872:888  _id <= postCount */\n      gt\n      iszero\n        /* \"contracts/Web3SocialMedia.sol\":861:888  _id > 0 && _id <= postCount */\n    tag_46:\n        /* \"contracts/Web3SocialMedia.sol\":853:908  require(_id > 0 && _id <= postCount, \"Invalid Post ID\") */\n      tag_47\n      jumpi\n      mload(0x40)\n      0x08c379a000000000000000000000000000000000000000000000000000000000\n      dup2\n      mstore\n      0x04\n      add\n      tag_48\n      swap1\n      tag_49\n      jump\t// in\n    tag_48:\n      mload(0x40)\n      dup1\n      swap2\n      sub\n      swap1\n      revert\n    tag_47:\n        /* \"contracts/Web3SocialMedia.sol\":925:930  posts */\n      0x00\n        /* \"contracts/Web3SocialMedia.sol\":925:935  posts[_id] */\n      dup1\n        /* \"contracts/Web3SocialMedia.sol\":931:934  _id */\n      dup4\n        /* \"contracts/Web3SocialMedia.sol\":925:935  posts[_id] */\n      dup2\n      mstore\n      0x20\n      add\n      swap1\n      dup2\n      mstore\n      0x20\n      add\n      0x00\n      keccak256\n        /* \"contracts/Web3SocialMedia.sol\":918:935  return posts[_id] */\n      mload(0x40)\n      dup1\n      0x80\n      add\n      0x40\n      mstore\n      swap1\n      dup2\n      0x00\n      dup3\n      add\n      sload\n      dup2\n      mstore\n      0x20\n      add\n      0x01\n      dup3\n      add\n      0x00\n      swap1\n      sload\n      swap1\n      0x0100\n      exp\n      swap1\n      div\n      0xffffffffffffffffffffffffffffffffffffffff\n      and\n      0xffffffffffffffffffffffffffffffffffffffff\n      and\n      0xffffffffffffffffffffffffffffffffffffffff\n      and\n      dup2\n      mstore\n      0x20\n      add\n      0x02\n      dup3\n      add\n      dup1\n      sload\n      tag_50\n      swap1\n      tag_38\n      jump\t// in\n    tag_50:\n      dup1\n      0x1f\n      add\n      0x20\n      dup1\n      swap2\n      div\n      mul\n      0x20\n      add\n      mload(0x40)\n      swap1\n      dup2\n      add\n      0x40\n      mstore\n      dup1\n      swap3\n      swap2\n      swap1\n      dup2\n      dup2\n      mstore\n      0x20\n      add\n      dup3\n      dup1\n      sload\n      tag_51\n      swap1\n      tag_38\n      jump\t// in\n    tag_51:\n      dup1\n      iszero\n      tag_52\n      jumpi\n      dup1\n      0x1f\n      lt\n      tag_53\n      jumpi\n      0x0100\n      dup1\n      dup4\n      sload\n      div\n      mul\n      dup4\n      mstore\n      swap2\n      0x20\n      add\n      swap2\n      jump(tag_52)\n    tag_53:\n      dup3\n      add\n      swap2\n      swap1\n      0x00\n      mstore\n      keccak256(0x00, 0x20)\n      swap1\n    tag_54:\n      dup2\n      sload\n      dup2\n      mstore\n      swap1\n      0x01\n      add\n      swap1\n      0x20\n      add\n      dup1\n      dup4\n      gt\n      tag_54\n      jumpi\n      dup3\n      swap1\n      sub\n      0x1f\n      and\n      dup3\n      add\n      swap2\n    tag_52:\n      pop\n      pop\n      pop\n      pop\n      pop\n      dup2\n      mstore\n      0x20\n      add\n      0x03\n      dup3\n      add\n      sload\n      dup2\n      mstore\n      pop\n      pop\n      swap1\n      pop\n        /* \"contracts/Web3SocialMedia.sol\":780:942  function getPost(uint _id) external view returns (Post memory) {... */\n      swap2\n      swap1\n      pop\n      jump\t// out\n        /* \"contracts/Web3SocialMedia.sol\":496:738  function createPost(string calldata _content) external {... */\n    tag_27:\n        /* \"contracts/Web3SocialMedia.sol\":561:570  postCount */\n      0x01\n      0x00\n        /* \"contracts/Web3SocialMedia.sol\":561:572  postCount++ */\n      dup2\n      sload\n      dup1\n      swap3\n      swap2\n      swap1\n      tag_56\n      swap1\n      tag_57\n      jump\t// in\n    tag_56:\n      swap2\n      swap1\n      pop\n      sstore\n      pop\n        /* \"contracts/Web3SocialMedia.sol\":601:655  Post(postCount, msg.sender, _content, block.timestamp) */\n      mload(0x40)\n      dup1\n      0x80\n      add\n      0x40\n      mstore\n      dup1\n        /* \"contracts/Web3SocialMedia.sol\":606:615  postCount */\n      sload(0x01)\n        /* \"contracts/Web3SocialMedia.sol\":601:655  Post(postCount, msg.sender, _content, block.timestamp) */\n      dup2\n      mstore\n      0x20\n      add\n        /* \"contracts/Web3SocialMedia.sol\":617:627  msg.sender */\n      caller\n        /* \"contracts/Web3SocialMedia.sol\":601:655  Post(postCount, msg.sender, _content, block.timestamp) */\n      0xffffffffffffffffffffffffffffffffffffffff\n      and\n      dup2\n      mstore\n      0x20\n      add\n        /* \"contracts/Web3SocialMedia.sol\":629:637  _content */\n      dup4\n      dup4\n        /* \"contracts/Web3SocialMedia.sol\":601:655  Post(postCount, msg.sender, _content, block.timestamp) */\n      dup1\n      dup1\n      0x1f\n      add\n      0x20\n      dup1\n      swap2\n      div\n      mul\n      0x20\n      add\n      mload(0x40)\n      swap1\n      dup2\n      add\n      0x40\n      mstore\n      dup1\n      swap4\n      swap3\n      swap2\n      swap1\n      dup2\n      dup2\n      mstore\n      0x20\n      add\n      dup4\n      dup4\n      dup1\n      dup3\n      dup5\n      calldatacopy\n      0x00\n      dup2\n      dup5\n      add\n      mstore\n      not(0x1f)\n      0x1f\n      dup3\n      add\n      and\n      swap1\n      pop\n      dup1\n      dup4\n      add\n      swap3\n      pop\n      pop\n      pop\n      pop\n      pop\n      pop\n      pop\n      dup2\n      mstore\n      0x20\n      add\n        /* \"contracts/Web3SocialMedia.sol\":639:654  block.timestamp */\n      timestamp\n        /* \"contracts/Web3SocialMedia.sol\":601:655  Post(postCount, msg.sender, _content, block.timestamp) */\n      dup2\n      mstore\n      pop\n        /* \"contracts/Web3SocialMedia.sol\":582:587  posts */\n      0x00\n        /* \"contracts/Web3SocialMedia.sol\":582:598  posts[postCount] */\n      dup1\n        /* \"contracts/Web3SocialMedia.sol\":588:597  postCount */\n      sload(0x01)\n        /* \"contracts/Web3SocialMedia.sol\":582:598  posts[postCount] */\n      dup2\n      mstore\n      0x20\n      add\n      swap1\n      dup2\n      mstore\n      0x20\n      add\n      0x00\n      keccak256\n        /* \"contracts/Web3SocialMedia.sol\":582:655  posts[postCount] = Post(postCount, msg.sender, _content, block.timestamp) */\n      0x00\n      dup3\n      add\n      mload\n      dup2\n      0x00\n      add\n      sstore\n      0x20\n      dup3\n      add\n      mload\n      dup2\n      0x01\n      add\n      exp(0x0100, 0x00)\n      dup2\n      sload\n      dup2\n      0xffffffffffffffffffffffffffffffffffffffff\n      mul\n      not\n      and\n      swap1\n      dup4\n      0xffffffffffffffffffffffffffffffffffffffff\n      and\n      mul\n      or\n      swap1\n      sstore\n      pop\n      0x40\n      dup3\n      add\n      mload\n      dup2\n      0x02\n      add\n      swap1\n      dup2\n      tag_58\n      swap2\n      swap1\n      tag_59\n      jump\t// in\n    tag_58:\n      pop\n      0x60\n      dup3\n      add\n      mload\n      dup2\n      0x03\n      add\n      sstore\n      swap1\n      pop\n      pop\n        /* \"contracts/Web3SocialMedia.sol\":670:731  PostCreated(postCount, msg.sender, _content, block.timestamp) */\n      0x285db98a4632176385795ddf0d2b67cef1a21f47eb2f5d06f786ab6b5147e200\n        /* \"contracts/Web3SocialMedia.sol\":682:691  postCount */\n      sload(0x01)\n        /* \"contracts/Web3SocialMedia.sol\":693:703  msg.sender */\n      caller\n        /* \"contracts/Web3SocialMedia.sol\":705:713  _content */\n      dup5\n      dup5\n        /* \"contracts/Web3SocialMedia.sol\":715:730  block.timestamp */\n      timestamp\n        /* \"contracts/Web3SocialMedia.sol\":670:731  PostCreated(postCount, msg.sender, _content, block.timestamp) */\n      mload(0x40)\n      tag_60\n      swap6\n      swap5\n      swap4\n      swap3\n      swap2\n      swap1\n      tag_61\n      jump\t// in\n    tag_60:\n      mload(0x40)\n      dup1\n      swap2\n      sub\n      swap1\n      log1\n        /* \"contracts/Web3SocialMedia.sol\":496:738  function createPost(string calldata _content) external {... */\n      pop\n      pop\n      jump\t// out\n        /* \"contracts/Web3SocialMedia.sol\":990:1150  function setUsername(string calldata _username) external {... */\n    tag_30:\n        /* \"contracts/Web3SocialMedia.sol\":1081:1090  _username */\n      dup2\n      dup2\n        /* \"contracts/Web3SocialMedia.sol\":1057:1066  usernames */\n      0x02\n        /* \"contracts/Web3SocialMedia.sol\":1057:1078  usernames[msg.sender] */\n      0x00\n        /* \"contracts/Web3SocialMedia.sol\":1067:1077  msg.sender */\n      caller\n        /* \"contracts/Web3SocialMedia.sol\":1057:1078  usernames[msg.sender] */\n      0xffffffffffffffffffffffffffffffffffffffff\n      and\n      0xffffffffffffffffffffffffffffffffffffffff\n      and\n      dup2\n      mstore\n      0x20\n      add\n      swap1\n      dup2\n      mstore\n      0x20\n      add\n      0x00\n      keccak256\n        /* \"contracts/Web3SocialMedia.sol\":1057:1090  usernames[msg.sender] = _username */\n      swap2\n      dup3\n      tag_63\n      swap3\n      swap2\n      swap1\n      tag_64\n      jump\t// in\n    tag_63:\n      pop\n        /* \"contracts/Web3SocialMedia.sol\":1105:1143  UsernameUpdated(msg.sender, _username) */\n      0x1af4cc3acb57f067d1d582e3932be6692a4c9a31d8b3a8567dfc1c340a02d534\n        /* \"contracts/Web3SocialMedia.sol\":1121:1131  msg.sender */\n      caller\n        /* \"contracts/Web3SocialMedia.sol\":1133:1142  _username */\n      dup4\n      dup4\n        /* \"contracts/Web3SocialMedia.sol\":1105:1143  UsernameUpdated(msg.sender, _username) */\n      mload(0x40)\n      tag_65\n      swap4\n      swap3\n      swap2\n      swap1\n      tag_66\n      jump\t// in\n    tag_65:\n      mload(0x40)\n      dup1\n      swap2\n      sub\n      swap1\n      log1\n        /* \"contracts/Web3SocialMedia.sol\":990:1150  function setUsername(string calldata _username) external {... */\n      pop\n      pop\n      jump\t// out\n        /* \"contracts/Web3SocialMedia.sol\":271:314  mapping(address => string) public usernames */\n    tag_34:\n      mstore(0x20, 0x02)\n      dup1\n      0x00\n      mstore\n      keccak256(0x00, 0x40)\n      0x00\n      swap2\n      pop\n      swap1\n      pop\n      dup1\n      sload\n      tag_67\n      swap1\n      tag_38\n      jump\t// in\n    tag_67:\n      dup1\n      0x1f\n      add\n      0x20\n      dup1\n      swap2\n      div\n      mul\n      0x20\n      add\n      mload(0x40)\n      swap1\n      dup2\n      add\n      0x40\n      mstore\n      dup1\n      swap3\n      swap2\n      swap1\n      dup2\n      dup2\n      mstore\n      0x20\n      add\n      dup3\n      dup1\n      sload\n      tag_68\n      swap1\n      tag_38\n      jump\t// in\n    tag_68:\n      dup1\n      iszero\n      tag_69\n      jumpi\n      dup1\n      0x1f\n      lt\n      tag_70\n      jumpi\n      0x0100\n      dup1\n      dup4\n      sload\n      div\n      mul\n      dup4\n      mstore\n      swap2\n      0x20\n      add\n      swap2\n      jump(tag_69)\n    tag_70:\n      dup3\n      add\n      swap2\n      swap1\n      0x00\n      mstore\n      keccak256(0x00, 0x20)\n      swap1\n    tag_71:\n      dup2\n      sload\n      dup2\n      mstore\n      swap1\n      0x01\n      add\n      swap1\n      0x20\n      add\n      dup1\n      dup4\n      gt\n      tag_71\n      jumpi\n      dup3\n      swap1\n      sub\n      0x1f\n      and\n      dup3\n      add\n      swap2\n    tag_69:\n      pop\n      pop\n      pop\n      pop\n      pop\n      dup2\n      jump\t// out\n    tag_44:\n      mload(0x40)\n      dup1\n      0x80\n      add\n      0x40\n      mstore\n      dup1\n      0x00\n      dup2\n      mstore\n      0x20\n      add\n      and(0xffffffffffffffffffffffffffffffffffffffff, 0x00)\n      dup2\n      mstore\n      0x20\n      add\n      0x60\n      dup2\n      mstore\n      0x20\n      add\n      0x00\n      dup2\n      mstore\n      pop\n      swap1\n      jump\t// out\n        /* \"#utility.yul\":88:205   */\n    tag_73:\n        /* \"#utility.yul\":197:198   */\n      0x00\n        /* \"#utility.yul\":194:195   */\n      dup1\n        /* \"#utility.yul\":187:199   */\n      revert\n        /* \"#utility.yul\":211:328   */\n    tag_74:\n        /* \"#utility.yul\":320:321   */\n      0x00\n        /* \"#utility.yul\":317:318   */\n      dup1\n        /* \"#utility.yul\":310:322   */\n      revert\n        /* \"#utility.yul\":334:411   */\n    tag_75:\n        /* \"#utility.yul\":371:378   */\n      0x00\n        /* \"#utility.yul\":400:405   */\n      dup2\n        /* \"#utility.yul\":389:405   */\n      swap1\n      pop\n        /* \"#utility.yul\":334:411   */\n      swap2\n      swap1\n      pop\n      jump\t// out\n        /* \"#utility.yul\":417:539   */\n    tag_76:\n        /* \"#utility.yul\":490:514   */\n      tag_127\n        /* \"#utility.yul\":508:513   */\n      dup2\n        /* \"#utility.yul\":490:514   */\n      tag_75\n      jump\t// in\n    tag_127:\n        /* \"#utility.yul\":483:488   */\n      dup2\n        /* \"#utility.yul\":480:515   */\n      eq\n        /* \"#utility.yul\":470:533   */\n      tag_128\n      jumpi\n        /* \"#utility.yul\":529:530   */\n      0x00\n        /* \"#utility.yul\":526:527   */\n      dup1\n        /* \"#utility.yul\":519:531   */\n      revert\n        /* \"#utility.yul\":470:533   */\n    tag_128:\n        /* \"#utility.yul\":417:539   */\n      pop\n      jump\t// out\n        /* \"#utility.yul\":545:684   */\n    tag_77:\n        /* \"#utility.yul\":591:596   */\n      0x00\n        /* \"#utility.yul\":629:635   */\n      dup2\n        /* \"#utility.yul\":616:636   */\n      calldataload\n        /* \"#utility.yul\":607:636   */\n      swap1\n      pop\n        /* \"#utility.yul\":645:678   */\n      tag_130\n        /* \"#utility.yul\":672:677   */\n      dup2\n        /* \"#utility.yul\":645:678   */\n      tag_76\n      jump\t// in\n    tag_130:\n        /* \"#utility.yul\":545:684   */\n      swap3\n      swap2\n      pop\n      pop\n      jump\t// out\n        /* \"#utility.yul\":690:1019   */\n    tag_11:\n        /* \"#utility.yul\":749:755   */\n      0x00\n        /* \"#utility.yul\":798:800   */\n      0x20\n        /* \"#utility.yul\":786:795   */\n      dup3\n        /* \"#utility.yul\":777:784   */\n      dup5\n        /* \"#utility.yul\":773:796   */\n      sub\n        /* \"#utility.yul\":769:801   */\n      slt\n        /* \"#utility.yul\":766:885   */\n      iszero\n      tag_132\n      jumpi\n        /* \"#utility.yul\":804:883   */\n      tag_133\n      tag_73\n      jump\t// in\n    tag_133:\n        /* \"#utility.yul\":766:885   */\n    tag_132:\n        /* \"#utility.yul\":924:925   */\n      0x00\n        /* \"#utility.yul\":949:1002   */\n      tag_134\n        /* \"#utility.yul\":994:1001   */\n      dup5\n        /* \"#utility.yul\":985:991   */\n      dup3\n        /* \"#utility.yul\":974:983   */\n      dup6\n        /* \"#utility.yul\":970:992   */\n      add\n        /* \"#utility.yul\":949:1002   */\n      tag_77\n      jump\t// in\n    tag_134:\n        /* \"#utility.yul\":939:1002   */\n      swap2\n      pop\n        /* \"#utility.yul\":895:1012   */\n      pop\n        /* \"#utility.yul\":690:1019   */\n      swap3\n      swap2\n      pop\n      pop\n      jump\t// out\n        /* \"#utility.yul\":1025:1143   */\n    tag_78:\n        /* \"#utility.yul\":1112:1136   */\n      tag_136\n        /* \"#utility.yul\":1130:1135   */\n      dup2\n        /* \"#utility.yul\":1112:1136   */\n      tag_75\n      jump\t// in\n    tag_136:\n        /* \"#utility.yul\":1107:1110   */\n      dup3\n        /* \"#utility.yul\":1100:1137   */\n      mstore\n        /* \"#utility.yul\":1025:1143   */\n      pop\n      pop\n      jump\t// out\n        /* \"#utility.yul\":1149:1275   */\n    tag_79:\n        /* \"#utility.yul\":1186:1193   */\n      0x00\n        /* \"#utility.yul\":1226:1268   */\n      0xffffffffffffffffffffffffffffffffffffffff\n        /* \"#utility.yul\":1219:1224   */\n      dup3\n        /* \"#utility.yul\":1215:1269   */\n      and\n        /* \"#utility.yul\":1204:1269   */\n      swap1\n      pop\n        /* \"#utility.yul\":1149:1275   */\n      swap2\n      swap1\n      pop\n      jump\t// out\n        /* \"#utility.yul\":1281:1377   */\n    tag_80:\n        /* \"#utility.yul\":1318:1325   */\n      0x00\n        /* \"#utility.yul\":1347:1371   */\n      tag_139\n        /* \"#utility.yul\":1365:1370   */\n      dup3\n        /* \"#utility.yul\":1347:1371   */\n      tag_79\n      jump\t// in\n    tag_139:\n        /* \"#utility.yul\":1336:1371   */\n      swap1\n      pop\n        /* \"#utility.yul\":1281:1377   */\n      swap2\n      swap1\n      pop\n      jump\t// out\n        /* \"#utility.yul\":1383:1501   */\n    tag_81:\n        /* \"#utility.yul\":1470:1494   */\n      tag_141\n        /* \"#utility.yul\":1488:1493   */\n      dup2\n        /* \"#utility.yul\":1470:1494   */\n      tag_80\n      jump\t// in\n    tag_141:\n        /* \"#utility.yul\":1465:1468   */\n      dup3\n        /* \"#utility.yul\":1458:1495   */\n      mstore\n        /* \"#utility.yul\":1383:1501   */\n      pop\n      pop\n      jump\t// out\n        /* \"#utility.yul\":1507:1606   */\n    tag_82:\n        /* \"#utility.yul\":1559:1565   */\n      0x00\n        /* \"#utility.yul\":1593:1598   */\n      dup2\n        /* \"#utility.yul\":1587:1599   */\n      mload\n        /* \"#utility.yul\":1577:1599   */\n      swap1\n      pop\n        /* \"#utility.yul\":1507:1606   */\n      swap2\n      swap1\n      pop\n      jump\t// out\n        /* \"#utility.yul\":1612:1781   */\n    tag_83:\n        /* \"#utility.yul\":1696:1707   */\n      0x00\n        /* \"#utility.yul\":1730:1736   */\n      dup3\n        /* \"#utility.yul\":1725:1728   */\n      dup3\n        /* \"#utility.yul\":1718:1737   */\n      mstore\n        /* \"#utility.yul\":1770:1774   */\n      0x20\n        /* \"#utility.yul\":1765:1768   */\n      dup3\n        /* \"#utility.yul\":1761:1775   */\n      add\n        /* \"#utility.yul\":1746:1775   */\n      swap1\n      pop\n        /* \"#utility.yul\":1612:1781   */\n      swap3\n      swap2\n      pop\n      pop\n      jump\t// out\n        /* \"#utility.yul\":1787:2033   */\n    tag_84:\n        /* \"#utility.yul\":1868:1869   */\n      0x00\n        /* \"#utility.yul\":1878:1991   */\n    tag_145:\n        /* \"#utility.yul\":1892:1898   */\n      dup4\n        /* \"#utility.yul\":1889:1890   */\n      dup2\n        /* \"#utility.yul\":1886:1899   */\n      lt\n        /* \"#utility.yul\":1878:1991   */\n      iszero\n      tag_147\n      jumpi\n        /* \"#utility.yul\":1977:1978   */\n      dup1\n        /* \"#utility.yul\":1972:1975   */\n      dup3\n        /* \"#utility.yul\":1968:1979   */\n      add\n        /* \"#utility.yul\":1962:1980   */\n      mload\n        /* \"#utility.yul\":1958:1959   */\n      dup2\n        /* \"#utility.yul\":1953:1956   */\n      dup5\n        /* \"#utility.yul\":1949:1960   */\n      add\n        /* \"#utility.yul\":1942:1981   */\n      mstore\n        /* \"#utility.yul\":1914:1916   */\n      0x20\n        /* \"#utility.yul\":1911:1912   */\n      dup2\n        /* \"#utility.yul\":1907:1917   */\n      add\n        /* \"#utility.yul\":1902:1917   */\n      swap1\n      pop\n        /* \"#utility.yul\":1878:1991   */\n      jump(tag_145)\n    tag_147:\n        /* \"#utility.yul\":2025:2026   */\n      0x00\n        /* \"#utility.yul\":2016:2022   */\n      dup5\n        /* \"#utility.yul\":2011:2014   */\n      dup5\n        /* \"#utility.yul\":2007:2023   */\n      add\n        /* \"#utility.yul\":2000:2027   */\n      mstore\n        /* \"#utility.yul\":1849:2033   */\n      pop\n        /* \"#utility.yul\":1787:2033   */\n      pop\n      pop\n      pop\n      jump\t// out\n        /* \"#utility.yul\":2039:2141   */\n    tag_85:\n        /* \"#utility.yul\":2080:2086   */\n      0x00\n        /* \"#utility.yul\":2131:2133   */\n      0x1f\n        /* \"#utility.yul\":2127:2134   */\n      not\n        /* \"#utility.yul\":2122:2124   */\n      0x1f\n        /* \"#utility.yul\":2115:2120   */\n      dup4\n        /* \"#utility.yul\":2111:2125   */\n      add\n        /* \"#utility.yul\":2107:2135   */\n      and\n        /* \"#utility.yul\":2097:2135   */\n      swap1\n      pop\n        /* \"#utility.yul\":2039:2141   */\n      swap2\n      swap1\n      pop\n      jump\t// out\n        /* \"#utility.yul\":2147:2524   */\n    tag_86:\n        /* \"#utility.yul\":2235:2238   */\n      0x00\n        /* \"#utility.yul\":2263:2302   */\n      tag_150\n        /* \"#utility.yul\":2296:2301   */\n      dup3\n        /* \"#utility.yul\":2263:2302   */\n      tag_82\n      jump\t// in\n    tag_150:\n        /* \"#utility.yul\":2318:2389   */\n      tag_151\n        /* \"#utility.yul\":2382:2388   */\n      dup2\n        /* \"#utility.yul\":2377:2380   */\n      dup6\n        /* \"#utility.yul\":2318:2389   */\n      tag_83\n      jump\t// in\n    tag_151:\n        /* \"#utility.yul\":2311:2389   */\n      swap4\n      pop\n        /* \"#utility.yul\":2398:2463   */\n      tag_152\n        /* \"#utility.yul\":2456:2462   */\n      dup2\n        /* \"#utility.yul\":2451:2454   */\n      dup6\n        /* \"#utility.yul\":2444:2448   */\n      0x20\n        /* \"#utility.yul\":2437:2442   */\n      dup7\n        /* \"#utility.yul\":2433:2449   */\n      add\n        /* \"#utility.yul\":2398:2463   */\n      tag_84\n      jump\t// in\n    tag_152:\n        /* \"#utility.yul\":2488:2517   */\n      tag_153\n        /* \"#utility.yul\":2510:2516   */\n      dup2\n        /* \"#utility.yul\":2488:2517   */\n      tag_85\n      jump\t// in\n    tag_153:\n        /* \"#utility.yul\":2483:2486   */\n      dup5\n        /* \"#utility.yul\":2479:2518   */\n      add\n        /* \"#utility.yul\":2472:2518   */\n      swap2\n      pop\n        /* \"#utility.yul\":2239:2524   */\n      pop\n        /* \"#utility.yul\":2147:2524   */\n      swap3\n      swap2\n      pop\n      pop\n      jump\t// out\n        /* \"#utility.yul\":2530:3174   */\n    tag_14:\n        /* \"#utility.yul\":2727:2731   */\n      0x00\n        /* \"#utility.yul\":2765:2768   */\n      0x80\n        /* \"#utility.yul\":2754:2763   */\n      dup3\n        /* \"#utility.yul\":2750:2769   */\n      add\n        /* \"#utility.yul\":2742:2769   */\n      swap1\n      pop\n        /* \"#utility.yul\":2779:2850   */\n      tag_155\n        /* \"#utility.yul\":2847:2848   */\n      0x00\n        /* \"#utility.yul\":2836:2845   */\n      dup4\n        /* \"#utility.yul\":2832:2849   */\n      add\n        /* \"#utility.yul\":2823:2829   */\n      dup8\n        /* \"#utility.yul\":2779:2850   */\n      tag_78\n      jump\t// in\n    tag_155:\n        /* \"#utility.yul\":2860:2932   */\n      tag_156\n        /* \"#utility.yul\":2928:2930   */\n      0x20\n        /* \"#utility.yul\":2917:2926   */\n      dup4\n        /* \"#utility.yul\":2913:2931   */\n      add\n        /* \"#utility.yul\":2904:2910   */\n      dup7\n        /* \"#utility.yul\":2860:2932   */\n      tag_81\n      jump\t// in\n    tag_156:\n        /* \"#utility.yul\":2979:2988   */\n      dup2\n        /* \"#utility.yul\":2973:2977   */\n      dup2\n        /* \"#utility.yul\":2969:2989   */\n      sub\n        /* \"#utility.yul\":2964:2966   */\n      0x40\n        /* \"#utility.yul\":2953:2962   */\n      dup4\n        /* \"#utility.yul\":2949:2967   */\n      add\n        /* \"#utility.yul\":2942:2990   */\n      mstore\n        /* \"#utility.yul\":3007:3085   */\n      tag_157\n        /* \"#utility.yul\":3080:3084   */\n      dup2\n        /* \"#utility.yul\":3071:3077   */\n      dup6\n        /* \"#utility.yul\":3007:3085   */\n      tag_86\n      jump\t// in\n    tag_157:\n        /* \"#utility.yul\":2999:3085   */\n      swap1\n      pop\n        /* \"#utility.yul\":3095:3167   */\n      tag_158\n        /* \"#utility.yul\":3163:3165   */\n      0x60\n        /* \"#utility.yul\":3152:3161   */\n      dup4\n        /* \"#utility.yul\":3148:3166   */\n      add\n        /* \"#utility.yul\":3139:3145   */\n      dup5\n        /* \"#utility.yul\":3095:3167   */\n      tag_78\n      jump\t// in\n    tag_158:\n        /* \"#utility.yul\":2530:3174   */\n      swap6\n      swap5\n      pop\n      pop\n      pop\n      pop\n      pop\n      jump\t// out\n        /* \"#utility.yul\":3180:3402   */\n    tag_18:\n        /* \"#utility.yul\":3273:3277   */\n      0x00\n        /* \"#utility.yul\":3311:3313   */\n      0x20\n        /* \"#utility.yul\":3300:3309   */\n      dup3\n        /* \"#utility.yul\":3296:3314   */\n      add\n        /* \"#utility.yul\":3288:3314   */\n      swap1\n      pop\n        /* \"#utility.yul\":3324:3395   */\n      tag_160\n        /* \"#utility.yul\":3392:3393   */\n      0x00\n        /* \"#utility.yul\":3381:3390   */\n      dup4\n        /* \"#utility.yul\":3377:3394   */\n      add\n        /* \"#utility.yul\":3368:3374   */\n      dup5\n        /* \"#utility.yul\":3324:3395   */\n      tag_78\n      jump\t// in\n    tag_160:\n        /* \"#utility.yul\":3180:3402   */\n      swap3\n      swap2\n      pop\n      pop\n      jump\t// out\n        /* \"#utility.yul\":3408:3516   */\n    tag_87:\n        /* \"#utility.yul\":3485:3509   */\n      tag_162\n        /* \"#utility.yul\":3503:3508   */\n      dup2\n        /* \"#utility.yul\":3485:3509   */\n      tag_75\n      jump\t// in\n    tag_162:\n        /* \"#utility.yul\":3480:3483   */\n      dup3\n        /* \"#utility.yul\":3473:3510   */\n      mstore\n        /* \"#utility.yul\":3408:3516   */\n      pop\n      pop\n      jump\t// out\n        /* \"#utility.yul\":3522:3630   */\n    tag_88:\n        /* \"#utility.yul\":3599:3623   */\n      tag_164\n        /* \"#utility.yul\":3617:3622   */\n      dup2\n        /* \"#utility.yul\":3599:3623   */\n      tag_80\n      jump\t// in\n    tag_164:\n        /* \"#utility.yul\":3594:3597   */\n      dup3\n        /* \"#utility.yul\":3587:3624   */\n      mstore\n        /* \"#utility.yul\":3522:3630   */\n      pop\n      pop\n      jump\t// out\n        /* \"#utility.yul\":3636:3795   */\n    tag_89:\n        /* \"#utility.yul\":3710:3721   */\n      0x00\n        /* \"#utility.yul\":3744:3750   */\n      dup3\n        /* \"#utility.yul\":3739:3742   */\n      dup3\n        /* \"#utility.yul\":3732:3751   */\n      mstore\n        /* \"#utility.yul\":3784:3788   */\n      0x20\n        /* \"#utility.yul\":3779:3782   */\n      dup3\n        /* \"#utility.yul\":3775:3789   */\n      add\n        /* \"#utility.yul\":3760:3789   */\n      swap1\n      pop\n        /* \"#utility.yul\":3636:3795   */\n      swap3\n      swap2\n      pop\n      pop\n      jump\t// out\n        /* \"#utility.yul\":3801:4158   */\n    tag_90:\n        /* \"#utility.yul\":3879:3882   */\n      0x00\n        /* \"#utility.yul\":3907:3946   */\n      tag_167\n        /* \"#utility.yul\":3940:3945   */\n      dup3\n        /* \"#utility.yul\":3907:3946   */\n      tag_82\n      jump\t// in\n    tag_167:\n        /* \"#utility.yul\":3962:4023   */\n      tag_168\n        /* \"#utility.yul\":4016:4022   */\n      dup2\n        /* \"#utility.yul\":4011:4014   */\n      dup6\n        /* \"#utility.yul\":3962:4023   */\n      tag_89\n      jump\t// in\n    tag_168:\n        /* \"#utility.yul\":3955:4023   */\n      swap4\n      pop\n        /* \"#utility.yul\":4032:4097   */\n      tag_169\n        /* \"#utility.yul\":4090:4096   */\n      dup2\n        /* \"#utility.yul\":4085:4088   */\n      dup6\n        /* \"#utility.yul\":4078:4082   */\n      0x20\n        /* \"#utility.yul\":4071:4076   */\n      dup7\n        /* \"#utility.yul\":4067:4083   */\n      add\n        /* \"#utility.yul\":4032:4097   */\n      tag_84\n      jump\t// in\n    tag_169:\n        /* \"#utility.yul\":4122:4151   */\n      tag_170\n        /* \"#utility.yul\":4144:4150   */\n      dup2\n        /* \"#utility.yul\":4122:4151   */\n      tag_85\n      jump\t// in\n    tag_170:\n        /* \"#utility.yul\":4117:4120   */\n      dup5\n        /* \"#utility.yul\":4113:4152   */\n      add\n        /* \"#utility.yul\":4106:4152   */\n      swap2\n      pop\n        /* \"#utility.yul\":3883:4158   */\n      pop\n        /* \"#utility.yul\":3801:4158   */\n      swap3\n      swap2\n      pop\n      pop\n      jump\t// out\n        /* \"#utility.yul\":4230:5182   */\n    tag_91:\n        /* \"#utility.yul\":4339:4342   */\n      0x00\n        /* \"#utility.yul\":4375:4379   */\n      0x80\n        /* \"#utility.yul\":4370:4373   */\n      dup4\n        /* \"#utility.yul\":4366:4380   */\n      add\n        /* \"#utility.yul\":4460:4464   */\n      0x00\n        /* \"#utility.yul\":4453:4458   */\n      dup4\n        /* \"#utility.yul\":4449:4465   */\n      add\n        /* \"#utility.yul\":4443:4466   */\n      mload\n        /* \"#utility.yul\":4479:4542   */\n      tag_172\n        /* \"#utility.yul\":4536:4540   */\n      0x00\n        /* \"#utility.yul\":4531:4534   */\n      dup7\n        /* \"#utility.yul\":4527:4541   */\n      add\n        /* \"#utility.yul\":4513:4525   */\n      dup3\n        /* \"#utility.yul\":4479:4542   */\n      tag_87\n      jump\t// in\n    tag_172:\n        /* \"#utility.yul\":4390:4552   */\n      pop\n        /* \"#utility.yul\":4636:4640   */\n      0x20\n        /* \"#utility.yul\":4629:4634   */\n      dup4\n        /* \"#utility.yul\":4625:4641   */\n      add\n        /* \"#utility.yul\":4619:4642   */\n      mload\n        /* \"#utility.yul\":4655:4718   */\n      tag_173\n        /* \"#utility.yul\":4712:4716   */\n      0x20\n        /* \"#utility.yul\":4707:4710   */\n      dup7\n        /* \"#utility.yul\":4703:4717   */\n      add\n        /* \"#utility.yul\":4689:4701   */\n      dup3\n        /* \"#utility.yul\":4655:4718   */\n      tag_88\n      jump\t// in\n    tag_173:\n        /* \"#utility.yul\":4562:4728   */\n      pop\n        /* \"#utility.yul\":4813:4817   */\n      0x40\n        /* \"#utility.yul\":4806:4811   */\n      dup4\n        /* \"#utility.yul\":4802:4818   */\n      add\n        /* \"#utility.yul\":4796:4819   */\n      mload\n        /* \"#utility.yul\":4866:4869   */\n      dup5\n        /* \"#utility.yul\":4860:4864   */\n      dup3\n        /* \"#utility.yul\":4856:4870   */\n      sub\n        /* \"#utility.yul\":4849:4853   */\n      0x40\n        /* \"#utility.yul\":4844:4847   */\n      dup7\n        /* \"#utility.yul\":4840:4854   */\n      add\n        /* \"#utility.yul\":4833:4871   */\n      mstore\n        /* \"#utility.yul\":4892:4965   */\n      tag_174\n        /* \"#utility.yul\":4960:4964   */\n      dup3\n        /* \"#utility.yul\":4946:4958   */\n      dup3\n        /* \"#utility.yul\":4892:4965   */\n      tag_90\n      jump\t// in\n    tag_174:\n        /* \"#utility.yul\":4884:4965   */\n      swap2\n      pop\n        /* \"#utility.yul\":4738:4976   */\n      pop\n        /* \"#utility.yul\":5063:5067   */\n      0x60\n        /* \"#utility.yul\":5056:5061   */\n      dup4\n        /* \"#utility.yul\":5052:5068   */\n      add\n        /* \"#utility.yul\":5046:5069   */\n      mload\n        /* \"#utility.yul\":5082:5145   */\n      tag_175\n        /* \"#utility.yul\":5139:5143   */\n      0x60\n        /* \"#utility.yul\":5134:5137   */\n      dup7\n        /* \"#utility.yul\":5130:5144   */\n      add\n        /* \"#utility.yul\":5116:5128   */\n      dup3\n        /* \"#utility.yul\":5082:5145   */\n      tag_87\n      jump\t// in\n    tag_175:\n        /* \"#utility.yul\":4986:5155   */\n      pop\n        /* \"#utility.yul\":5172:5176   */\n      dup1\n        /* \"#utility.yul\":5165:5176   */\n      swap2\n      pop\n        /* \"#utility.yul\":4344:5182   */\n      pop\n        /* \"#utility.yul\":4230:5182   */\n      swap3\n      swap2\n      pop\n      pop\n      jump\t// out\n        /* \"#utility.yul\":5188:5541   */\n    tag_23:\n        /* \"#utility.yul\":5321:5325   */\n      0x00\n        /* \"#utility.yul\":5359:5361   */\n      0x20\n        /* \"#utility.yul\":5348:5357   */\n      dup3\n        /* \"#utility.yul\":5344:5362   */\n      add\n        /* \"#utility.yul\":5336:5362   */\n      swap1\n      pop\n        /* \"#utility.yul\":5408:5417   */\n      dup2\n        /* \"#utility.yul\":5402:5406   */\n      dup2\n        /* \"#utility.yul\":5398:5418   */\n      sub\n        /* \"#utility.yul\":5394:5395   */\n      0x00\n        /* \"#utility.yul\":5383:5392   */\n      dup4\n        /* \"#utility.yul\":5379:5396   */\n      add\n        /* \"#utility.yul\":5372:5419   */\n      mstore\n        /* \"#utility.yul\":5436:5534   */\n      tag_177\n        /* \"#utility.yul\":5529:5533   */\n      dup2\n        /* \"#utility.yul\":5520:5526   */\n      dup5\n        /* \"#utility.yul\":5436:5534   */\n      tag_91\n      jump\t// in\n    tag_177:\n        /* \"#utility.yul\":5428:5534   */\n      swap1\n      pop\n        /* \"#utility.yul\":5188:5541   */\n      swap3\n      swap2\n      pop\n      pop\n      jump\t// out\n        /* \"#utility.yul\":5547:5664   */\n    tag_92:\n        /* \"#utility.yul\":5656:5657   */\n      0x00\n        /* \"#utility.yul\":5653:5654   */\n      dup1\n        /* \"#utility.yul\":5646:5658   */\n      revert\n        /* \"#utility.yul\":5670:5787   */\n    tag_93:\n        /* \"#utility.yul\":5779:5780   */\n      0x00\n        /* \"#utility.yul\":5776:5777   */\n      dup1\n        /* \"#utility.yul\":5769:5781   */\n      revert\n        /* \"#utility.yul\":5793:5910   */\n    tag_94:\n        /* \"#utility.yul\":5902:5903   */\n      0x00\n        /* \"#utility.yul\":5899:5900   */\n      dup1\n        /* \"#utility.yul\":5892:5904   */\n      revert\n        /* \"#utility.yul\":5930:6483   */\n    tag_95:\n        /* \"#utility.yul\":5988:5996   */\n      0x00\n        /* \"#utility.yul\":5998:6004   */\n      dup1\n        /* \"#utility.yul\":6048:6051   */\n      dup4\n        /* \"#utility.yul\":6041:6045   */\n      0x1f\n        /* \"#utility.yul\":6033:6039   */\n      dup5\n        /* \"#utility.yul\":6029:6046   */\n      add\n        /* \"#utility.yul\":6025:6052   */\n      slt\n        /* \"#utility.yul\":6015:6137   */\n      tag_182\n      jumpi\n        /* \"#utility.yul\":6056:6135   */\n      tag_183\n      tag_92\n      jump\t// in\n    tag_183:\n        /* \"#utility.yul\":6015:6137   */\n    tag_182:\n        /* \"#utility.yul\":6169:6175   */\n      dup3\n        /* \"#utility.yul\":6156:6176   */\n      calldataload\n        /* \"#utility.yul\":6146:6176   */\n      swap1\n      pop\n        /* \"#utility.yul\":6199:6217   */\n      0xffffffffffffffff\n        /* \"#utility.yul\":6191:6197   */\n      dup2\n        /* \"#utility.yul\":6188:6218   */\n      gt\n        /* \"#utility.yul\":6185:6302   */\n      iszero\n      tag_184\n      jumpi\n        /* \"#utility.yul\":6221:6300   */\n      tag_185\n      tag_93\n      jump\t// in\n    tag_185:\n        /* \"#utility.yul\":6185:6302   */\n    tag_184:\n        /* \"#utility.yul\":6335:6339   */\n      0x20\n        /* \"#utility.yul\":6327:6333   */\n      dup4\n        /* \"#utility.yul\":6323:6340   */\n      add\n        /* \"#utility.yul\":6311:6340   */\n      swap2\n      pop\n        /* \"#utility.yul\":6389:6392   */\n      dup4\n        /* \"#utility.yul\":6381:6385   */\n      0x01\n        /* \"#utility.yul\":6373:6379   */\n      dup3\n        /* \"#utility.yul\":6369:6386   */\n      mul\n        /* \"#utility.yul\":6359:6367   */\n      dup4\n        /* \"#utility.yul\":6355:6387   */\n      add\n        /* \"#utility.yul\":6352:6393   */\n      gt\n        /* \"#utility.yul\":6349:6477   */\n      iszero\n      tag_186\n      jumpi\n        /* \"#utility.yul\":6396:6475   */\n      tag_187\n      tag_94\n      jump\t// in\n    tag_187:\n        /* \"#utility.yul\":6349:6477   */\n    tag_186:\n        /* \"#utility.yul\":5930:6483   */\n      swap3\n      pop\n      swap3\n      swap1\n      pop\n      jump\t// out\n        /* \"#utility.yul\":6489:7018   */\n    tag_26:\n        /* \"#utility.yul\":6560:6566   */\n      0x00\n        /* \"#utility.yul\":6568:6574   */\n      dup1\n        /* \"#utility.yul\":6617:6619   */\n      0x20\n        /* \"#utility.yul\":6605:6614   */\n      dup4\n        /* \"#utility.yul\":6596:6603   */\n      dup6\n        /* \"#utility.yul\":6592:6615   */\n      sub\n        /* \"#utility.yul\":6588:6620   */\n      slt\n        /* \"#utility.yul\":6585:6704   */\n      iszero\n      tag_189\n      jumpi\n        /* \"#utility.yul\":6623:6702   */\n      tag_190\n      tag_73\n      jump\t// in\n    tag_190:\n        /* \"#utility.yul\":6585:6704   */\n    tag_189:\n        /* \"#utility.yul\":6771:6772   */\n      0x00\n        /* \"#utility.yul\":6760:6769   */\n      dup4\n        /* \"#utility.yul\":6756:6773   */\n      add\n        /* \"#utility.yul\":6743:6774   */\n      calldataload\n        /* \"#utility.yul\":6801:6819   */\n      0xffffffffffffffff\n        /* \"#utility.yul\":6793:6799   */\n      dup2\n        /* \"#utility.yul\":6790:6820   */\n      gt\n        /* \"#utility.yul\":6787:6904   */\n      iszero\n      tag_191\n      jumpi\n        /* \"#utility.yul\":6823:6902   */\n      tag_192\n      tag_74\n      jump\t// in\n    tag_192:\n        /* \"#utility.yul\":6787:6904   */\n    tag_191:\n        /* \"#utility.yul\":6936:7001   */\n      tag_193\n        /* \"#utility.yul\":6993:7000   */\n      dup6\n        /* \"#utility.yul\":6984:6990   */\n      dup3\n        /* \"#utility.yul\":6973:6982   */\n      dup7\n        /* \"#utility.yul\":6969:6991   */\n      add\n        /* \"#utility.yul\":6936:7001   */\n      tag_95\n      jump\t// in\n    tag_193:\n        /* \"#utility.yul\":6918:7001   */\n      swap3\n      pop\n      swap3\n      pop\n        /* \"#utility.yul\":6714:7011   */\n      pop\n        /* \"#utility.yul\":6489:7018   */\n      swap3\n      pop\n      swap3\n      swap1\n      pop\n      jump\t// out\n        /* \"#utility.yul\":7024:7146   */\n    tag_96:\n        /* \"#utility.yul\":7097:7121   */\n      tag_195\n        /* \"#utility.yul\":7115:7120   */\n      dup2\n        /* \"#utility.yul\":7097:7121   */\n      tag_80\n      jump\t// in\n    tag_195:\n        /* \"#utility.yul\":7090:7095   */\n      dup2\n        /* \"#utility.yul\":7087:7122   */\n      eq\n        /* \"#utility.yul\":7077:7140   */\n      tag_196\n      jumpi\n        /* \"#utility.yul\":7136:7137   */\n      0x00\n        /* \"#utility.yul\":7133:7134   */\n      dup1\n        /* \"#utility.yul\":7126:7138   */\n      revert\n        /* \"#utility.yul\":7077:7140   */\n    tag_196:\n        /* \"#utility.yul\":7024:7146   */\n      pop\n      jump\t// out\n        /* \"#utility.yul\":7152:7291   */\n    tag_97:\n        /* \"#utility.yul\":7198:7203   */\n      0x00\n        /* \"#utility.yul\":7236:7242   */\n      dup2\n        /* \"#utility.yul\":7223:7243   */\n      calldataload\n        /* \"#utility.yul\":7214:7243   */\n      swap1\n      pop\n        /* \"#utility.yul\":7252:7285   */\n      tag_198\n        /* \"#utility.yul\":7279:7284   */\n      dup2\n        /* \"#utility.yul\":7252:7285   */\n      tag_96\n      jump\t// in\n    tag_198:\n        /* \"#utility.yul\":7152:7291   */\n      swap3\n      swap2\n      pop\n      pop\n      jump\t// out\n        /* \"#utility.yul\":7297:7626   */\n    tag_33:\n        /* \"#utility.yul\":7356:7362   */\n      0x00\n        /* \"#utility.yul\":7405:7407   */\n      0x20\n        /* \"#utility.yul\":7393:7402   */\n      dup3\n        /* \"#utility.yul\":7384:7391   */\n      dup5\n        /* \"#utility.yul\":7380:7403   */\n      sub\n        /* \"#utility.yul\":7376:7408   */\n      slt\n        /* \"#utility.yul\":7373:7492   */\n      iszero\n      tag_200\n      jumpi\n        /* \"#utility.yul\":7411:7490   */\n      tag_201\n      tag_73\n      jump\t// in\n    tag_201:\n        /* \"#utility.yul\":7373:7492   */\n    tag_200:\n        /* \"#utility.yul\":7531:7532   */\n      0x00\n        /* \"#utility.yul\":7556:7609   */\n      tag_202\n        /* \"#utility.yul\":7601:7608   */\n      dup5\n        /* \"#utility.yul\":7592:7598   */\n      dup3\n        /* \"#utility.yul\":7581:7590   */\n      dup6\n        /* \"#utility.yul\":7577:7599   */\n      add\n        /* \"#utility.yul\":7556:7609   */\n      tag_97\n      jump\t// in\n    tag_202:\n        /* \"#utility.yul\":7546:7609   */\n      swap2\n      pop\n        /* \"#utility.yul\":7502:7619   */\n      pop\n        /* \"#utility.yul\":7297:7626   */\n      swap3\n      swap2\n      pop\n      pop\n      jump\t// out\n        /* \"#utility.yul\":7632:7945   */\n    tag_36:\n        /* \"#utility.yul\":7745:7749   */\n      0x00\n        /* \"#utility.yul\":7783:7785   */\n      0x20\n        /* \"#utility.yul\":7772:7781   */\n      dup3\n        /* \"#utility.yul\":7768:7786   */\n      add\n        /* \"#utility.yul\":7760:7786   */\n      swap1\n      pop\n        /* \"#utility.yul\":7832:7841   */\n      dup2\n        /* \"#utility.yul\":7826:7830   */\n      dup2\n        /* \"#utility.yul\":7822:7842   */\n      sub\n        /* \"#utility.yul\":7818:7819   */\n      0x00\n        /* \"#utility.yul\":7807:7816   */\n      dup4\n        /* \"#utility.yul\":7803:7820   */\n      add\n        /* \"#utility.yul\":7796:7843   */\n      mstore\n        /* \"#utility.yul\":7860:7938   */\n      tag_204\n        /* \"#utility.yul\":7933:7937   */\n      dup2\n        /* \"#utility.yul\":7924:7930   */\n      dup5\n        /* \"#utility.yul\":7860:7938   */\n      tag_86\n      jump\t// in\n    tag_204:\n        /* \"#utility.yul\":7852:7938   */\n      swap1\n      pop\n        /* \"#utility.yul\":7632:7945   */\n      swap3\n      swap2\n      pop\n      pop\n      jump\t// out\n        /* \"#utility.yul\":7951:8131   */\n    tag_98:\n        /* \"#utility.yul\":7999:8076   */\n      0x4e487b7100000000000000000000000000000000000000000000000000000000\n        /* \"#utility.yul\":7996:7997   */\n      0x00\n        /* \"#utility.yul\":7989:8077   */\n      mstore\n        /* \"#utility.yul\":8096:8100   */\n      0x22\n        /* \"#utility.yul\":8093:8094   */\n      0x04\n        /* \"#utility.yul\":8086:8101   */\n      mstore\n        /* \"#utility.yul\":8120:8124   */\n      0x24\n        /* \"#utility.yul\":8117:8118   */\n      0x00\n        /* \"#utility.yul\":8110:8125   */\n      revert\n        /* \"#utility.yul\":8137:8457   */\n    tag_38:\n        /* \"#utility.yul\":8181:8187   */\n      0x00\n        /* \"#utility.yul\":8218:8219   */\n      0x02\n        /* \"#utility.yul\":8212:8216   */\n      dup3\n        /* \"#utility.yul\":8208:8220   */\n      div\n        /* \"#utility.yul\":8198:8220   */\n      swap1\n      pop\n        /* \"#utility.yul\":8265:8266   */\n      0x01\n        /* \"#utility.yul\":8259:8263   */\n      dup3\n        /* \"#utility.yul\":8255:8267   */\n      and\n        /* \"#utility.yul\":8286:8304   */\n      dup1\n        /* \"#utility.yul\":8276:8357   */\n      tag_207\n      jumpi\n        /* \"#utility.yul\":8342:8346   */\n      0x7f\n        /* \"#utility.yul\":8334:8340   */\n      dup3\n        /* \"#utility.yul\":8330:8347   */\n      and\n        /* \"#utility.yul\":8320:8347   */\n      swap2\n      pop\n        /* \"#utility.yul\":8276:8357   */\n    tag_207:\n        /* \"#utility.yul\":8404:8406   */\n      0x20\n        /* \"#utility.yul\":8396:8402   */\n      dup3\n        /* \"#utility.yul\":8393:8407   */\n      lt\n        /* \"#utility.yul\":8373:8391   */\n      dup2\n        /* \"#utility.yul\":8370:8408   */\n      sub\n        /* \"#utility.yul\":8367:8451   */\n      tag_208\n      jumpi\n        /* \"#utility.yul\":8423:8441   */\n      tag_209\n      tag_98\n      jump\t// in\n    tag_209:\n        /* \"#utility.yul\":8367:8451   */\n    tag_208:\n        /* \"#utility.yul\":8188:8457   */\n      pop\n        /* \"#utility.yul\":8137:8457   */\n      swap2\n      swap1\n      pop\n      jump\t// out\n        /* \"#utility.yul\":8463:8628   */\n    tag_99:\n        /* \"#utility.yul\":8603:8620   */\n      0x496e76616c696420506f73742049440000000000000000000000000000000000\n        /* \"#utility.yul\":8599:8600   */\n      0x00\n        /* \"#utility.yul\":8591:8597   */\n      dup3\n        /* \"#utility.yul\":8587:8601   */\n      add\n        /* \"#utility.yul\":8580:8621   */\n      mstore\n        /* \"#utility.yul\":8463:8628   */\n      pop\n      jump\t// out\n        /* \"#utility.yul\":8634:9000   */\n    tag_100:\n        /* \"#utility.yul\":8776:8779   */\n      0x00\n        /* \"#utility.yul\":8797:8864   */\n      tag_212\n        /* \"#utility.yul\":8861:8863   */\n      0x0f\n        /* \"#utility.yul\":8856:8859   */\n      dup4\n        /* \"#utility.yul\":8797:8864   */\n      tag_83\n      jump\t// in\n    tag_212:\n        /* \"#utility.yul\":8790:8864   */\n      swap2\n      pop\n        /* \"#utility.yul\":8873:8966   */\n      tag_213\n        /* \"#utility.yul\":8962:8965   */\n      dup3\n        /* \"#utility.yul\":8873:8966   */\n      tag_99\n      jump\t// in\n    tag_213:\n        /* \"#utility.yul\":8991:8993   */\n      0x20\n        /* \"#utility.yul\":8986:8989   */\n      dup3\n        /* \"#utility.yul\":8982:8994   */\n      add\n        /* \"#utility.yul\":8975:8994   */\n      swap1\n      pop\n        /* \"#utility.yul\":8634:9000   */\n      swap2\n      swap1\n      pop\n      jump\t// out\n        /* \"#utility.yul\":9006:9425   */\n    tag_49:\n        /* \"#utility.yul\":9172:9176   */\n      0x00\n        /* \"#utility.yul\":9210:9212   */\n      0x20\n        /* \"#utility.yul\":9199:9208   */\n      dup3\n        /* \"#utility.yul\":9195:9213   */\n      add\n        /* \"#utility.yul\":9187:9213   */\n      swap1\n      pop\n        /* \"#utility.yul\":9259:9268   */\n      dup2\n        /* \"#utility.yul\":9253:9257   */\n      dup2\n        /* \"#utility.yul\":9249:9269   */\n      sub\n        /* \"#utility.yul\":9245:9246   */\n      0x00\n        /* \"#utility.yul\":9234:9243   */\n      dup4\n        /* \"#utility.yul\":9230:9247   */\n      add\n        /* \"#utility.yul\":9223:9270   */\n      mstore\n        /* \"#utility.yul\":9287:9418   */\n      tag_215\n        /* \"#utility.yul\":9413:9417   */\n      dup2\n        /* \"#utility.yul\":9287:9418   */\n      tag_100\n      jump\t// in\n    tag_215:\n        /* \"#utility.yul\":9279:9418   */\n      swap1\n      pop\n        /* \"#utility.yul\":9006:9425   */\n      swap2\n      swap1\n      pop\n      jump\t// out\n        /* \"#utility.yul\":9431:9611   */\n    tag_101:\n        /* \"#utility.yul\":9479:9556   */\n      0x4e487b7100000000000000000000000000000000000000000000000000000000\n        /* \"#utility.yul\":9476:9477   */\n      0x00\n        /* \"#utility.yul\":9469:9557   */\n      mstore\n        /* \"#utility.yul\":9576:9580   */\n      0x11\n        /* \"#utility.yul\":9573:9574   */\n      0x04\n        /* \"#utility.yul\":9566:9581   */\n      mstore\n        /* \"#utility.yul\":9600:9604   */\n      0x24\n        /* \"#utility.yul\":9597:9598   */\n      0x00\n        /* \"#utility.yul\":9590:9605   */\n      revert\n        /* \"#utility.yul\":9617:9850   */\n    tag_57:\n        /* \"#utility.yul\":9656:9659   */\n      0x00\n        /* \"#utility.yul\":9679:9703   */\n      tag_218\n        /* \"#utility.yul\":9697:9702   */\n      dup3\n        /* \"#utility.yul\":9679:9703   */\n      tag_75\n      jump\t// in\n    tag_218:\n        /* \"#utility.yul\":9670:9703   */\n      swap2\n      pop\n        /* \"#utility.yul\":9725:9791   */\n      0xffffffffffffffffffffffffffffffffffffffffffffffffffffffffffffffff\n        /* \"#utility.yul\":9718:9723   */\n      dup3\n        /* \"#utility.yul\":9715:9792   */\n      sub\n        /* \"#utility.yul\":9712:9815   */\n      tag_219\n      jumpi\n        /* \"#utility.yul\":9795:9813   */\n      tag_220\n      tag_101\n      jump\t// in\n    tag_220:\n        /* \"#utility.yul\":9712:9815   */\n    tag_219:\n        /* \"#utility.yul\":9842:9843   */\n      0x01\n        /* \"#utility.yul\":9835:9840   */\n      dup3\n        /* \"#utility.yul\":9831:9844   */\n      add\n        /* \"#utility.yul\":9824:9844   */\n      swap1\n      pop\n        /* \"#utility.yul\":9617:9850   */\n      swap2\n      swap1\n      pop\n      jump\t// out\n        /* \"#utility.yul\":9856:10036   */\n    tag_102:\n        /* \"#utility.yul\":9904:9981   */\n      0x4e487b7100000000000000000000000000000000000000000000000000000000\n        /* \"#utility.yul\":9901:9902   */\n      0x00\n        /* \"#utility.yul\":9894:9982   */\n      mstore\n        /* \"#utility.yul\":10001:10005   */\n      0x41\n        /* \"#utility.yul\":9998:9999   */\n      0x04\n        /* \"#utility.yul\":9991:10006   */\n      mstore\n        /* \"#utility.yul\":10025:10029   */\n      0x24\n        /* \"#utility.yul\":10022:10023   */\n      0x00\n        /* \"#utility.yul\":10015:10030   */\n      revert\n        /* \"#utility.yul\":10042:10183   */\n    tag_103:\n        /* \"#utility.yul\":10091:10095   */\n      0x00\n        /* \"#utility.yul\":10114:10117   */\n      dup2\n        /* \"#utility.yul\":10106:10117   */\n      swap1\n      pop\n        /* \"#utility.yul\":10137:10140   */\n      dup2\n        /* \"#utility.yul\":10134:10135   */\n      0x00\n        /* \"#utility.yul\":10127:10141   */\n      mstore\n        /* \"#utility.yul\":10171:10175   */\n      0x20\n        /* \"#utility.yul\":10168:10169   */\n      0x00\n        /* \"#utility.yul\":10158:10176   */\n      keccak256\n        /* \"#utility.yul\":10150:10176   */\n      swap1\n      pop\n        /* \"#utility.yul\":10042:10183   */\n      swap2\n      swap1\n      pop\n      jump\t// out\n        /* \"#utility.yul\":10189:10282   */\n    tag_104:\n        /* \"#utility.yul\":10226:10232   */\n      0x00\n        /* \"#utility.yul\":10273:10275   */\n      0x20\n        /* \"#utility.yul\":10268:10270   */\n      0x1f\n        /* \"#utility.yul\":10261:10266   */\n      dup4\n        /* \"#utility.yul\":10257:10271   */\n      add\n        /* \"#utility.yul\":10253:10276   */\n      div\n        /* \"#utility.yul\":10243:10276   */\n      swap1\n      pop\n        /* \"#utility.yul\":10189:10282   */\n      swap2\n      swap1\n      pop\n      jump\t// out\n        /* \"#utility.yul\":10288:10395   */\n    tag_105:\n        /* \"#utility.yul\":10332:10340   */\n      0x00\n        /* \"#utility.yul\":10382:10387   */\n      dup3\n        /* \"#utility.yul\":10376:10380   */\n      dup3\n        /* \"#utility.yul\":10372:10388   */\n      shl\n        /* \"#utility.yul\":10351:10388   */\n      swap1\n      pop\n        /* \"#utility.yul\":10288:10395   */\n      swap3\n      swap2\n      pop\n      pop\n      jump\t// out\n        /* \"#utility.yul\":10401:10794   */\n    tag_106:\n        /* \"#utility.yul\":10470:10476   */\n      0x00\n        /* \"#utility.yul\":10520:10521   */\n      0x08\n        /* \"#utility.yul\":10508:10518   */\n      dup4\n        /* \"#utility.yul\":10504:10522   */\n      mul\n        /* \"#utility.yul\":10543:10640   */\n      tag_226\n        /* \"#utility.yul\":10573:10639   */\n      0xffffffffffffffffffffffffffffffffffffffffffffffffffffffffffffffff\n        /* \"#utility.yul\":10562:10571   */\n      dup3\n        /* \"#utility.yul\":10543:10640   */\n      tag_105\n      jump\t// in\n    tag_226:\n        /* \"#utility.yul\":10661:10700   */\n      tag_227\n        /* \"#utility.yul\":10691:10699   */\n      dup7\n        /* \"#utility.yul\":10680:10689   */\n      dup4\n        /* \"#utility.yul\":10661:10700   */\n      tag_105\n      jump\t// in\n    tag_227:\n        /* \"#utility.yul\":10649:10700   */\n      swap6\n      pop\n        /* \"#utility.yul\":10733:10737   */\n      dup1\n        /* \"#utility.yul\":10729:10738   */\n      not\n        /* \"#utility.yul\":10722:10727   */\n      dup5\n        /* \"#utility.yul\":10718:10739   */\n      and\n        /* \"#utility.yul\":10709:10739   */\n      swap4\n      pop\n        /* \"#utility.yul\":10782:10786   */\n      dup1\n        /* \"#utility.yul\":10772:10780   */\n      dup7\n        /* \"#utility.yul\":10768:10787   */\n      and\n        /* \"#utility.yul\":10761:10766   */\n      dup5\n        /* \"#utility.yul\":10758:10788   */\n      or\n        /* \"#utility.yul\":10748:10788   */\n      swap3\n      pop\n        /* \"#utility.yul\":10477:10794   */\n      pop\n      pop\n        /* \"#utility.yul\":10401:10794   */\n      swap4\n      swap3\n      pop\n      pop\n      pop\n      jump\t// out\n        /* \"#utility.yul\":10800:10860   */\n    tag_107:\n        /* \"#utility.yul\":10828:10831   */\n      0x00\n        /* \"#utility.yul\":10849:10854   */\n      dup2\n        /* \"#utility.yul\":10842:10854   */\n      swap1\n      pop\n        /* \"#utility.yul\":10800:10860   */\n      swap2\n      swap1\n      pop\n      jump\t// out\n        /* \"#utility.yul\":10866:11008   */\n    tag_108:\n        /* \"#utility.yul\":10916:10925   */\n      0x00\n        /* \"#utility.yul\":10949:11002   */\n      tag_230\n        /* \"#utility.yul\":10967:11001   */\n      tag_231\n        /* \"#utility.yul\":10976:11000   */\n      tag_232\n        /* \"#utility.yul\":10994:10999   */\n      dup5\n        /* \"#utility.yul\":10976:11000   */\n      tag_75\n      jump\t// in\n    tag_232:\n        /* \"#utility.yul\":10967:11001   */\n      tag_107\n      jump\t// in\n    tag_231:\n        /* \"#utility.yul\":10949:11002   */\n      tag_75\n      jump\t// in\n    tag_230:\n        /* \"#utility.yul\":10936:11002   */\n      swap1\n      pop\n        /* \"#utility.yul\":10866:11008   */\n      swap2\n      swap1\n      pop\n      jump\t// out\n        /* \"#utility.yul\":11014:11089   */\n    tag_109:\n        /* \"#utility.yul\":11057:11060   */\n      0x00\n        /* \"#utility.yul\":11078:11083   */\n      dup2\n        /* \"#utility.yul\":11071:11083   */\n      swap1\n      pop\n        /* \"#utility.yul\":11014:11089   */\n      swap2\n      swap1\n      pop\n      jump\t// out\n        /* \"#utility.yul\":11095:11364   */\n    tag_110:\n        /* \"#utility.yul\":11205:11244   */\n      tag_235\n        /* \"#utility.yul\":11236:11243   */\n      dup4\n        /* \"#utility.yul\":11205:11244   */\n      tag_108\n      jump\t// in\n    tag_235:\n        /* \"#utility.yul\":11266:11357   */\n      tag_236\n        /* \"#utility.yul\":11315:11356   */\n      tag_237\n        /* \"#utility.yul\":11339:11355   */\n      dup3\n        /* \"#utility.yul\":11315:11356   */\n      tag_109\n      jump\t// in\n    tag_237:\n        /* \"#utility.yul\":11307:11313   */\n      dup5\n        /* \"#utility.yul\":11300:11304   */\n      dup5\n        /* \"#utility.yul\":11294:11305   */\n      sload\n        /* \"#utility.yul\":11266:11357   */\n      tag_106\n      jump\t// in\n    tag_236:\n        /* \"#utility.yul\":11260:11264   */\n      dup3\n        /* \"#utility.yul\":11253:11358   */\n      sstore\n        /* \"#utility.yul\":11171:11364   */\n      pop\n        /* \"#utility.yul\":11095:11364   */\n      pop\n      pop\n      pop\n      jump\t// out\n        /* \"#utility.yul\":11370:11443   */\n    tag_111:\n        /* \"#utility.yul\":11415:11418   */\n      0x00\n        /* \"#utility.yul\":11370:11443   */\n      swap1\n      jump\t// out\n        /* \"#utility.yul\":11449:11638   */\n    tag_112:\n        /* \"#utility.yul\":11526:11558   */\n      tag_240\n      tag_111\n      jump\t// in\n    tag_240:\n        /* \"#utility.yul\":11567:11632   */\n      tag_241\n        /* \"#utility.yul\":11625:11631   */\n      dup2\n        /* \"#utility.yul\":11617:11623   */\n      dup5\n        /* \"#utility.yul\":11611:11615   */\n      dup5\n        /* \"#utility.yul\":11567:11632   */\n      tag_110\n      jump\t// in\n    tag_241:\n        /* \"#utility.yul\":11502:11638   */\n      pop\n        /* \"#utility.yul\":11449:11638   */\n      pop\n      pop\n      jump\t// out\n        /* \"#utility.yul\":11644:11830   */\n    tag_113:\n        /* \"#utility.yul\":11704:11824   */\n    tag_243:\n        /* \"#utility.yul\":11721:11724   */\n      dup2\n        /* \"#utility.yul\":11714:11719   */\n      dup2\n        /* \"#utility.yul\":11711:11725   */\n      lt\n        /* \"#utility.yul\":11704:11824   */\n      iszero\n      tag_245\n      jumpi\n        /* \"#utility.yul\":11775:11814   */\n      tag_246\n        /* \"#utility.yul\":11812:11813   */\n      0x00\n        /* \"#utility.yul\":11805:11810   */\n      dup3\n        /* \"#utility.yul\":11775:11814   */\n      tag_112\n      jump\t// in\n    tag_246:\n        /* \"#utility.yul\":11748:11749   */\n      0x01\n        /* \"#utility.yul\":11741:11746   */\n      dup2\n        /* \"#utility.yul\":11737:11750   */\n      add\n        /* \"#utility.yul\":11728:11750   */\n      swap1\n      pop\n        /* \"#utility.yul\":11704:11824   */\n      jump(tag_243)\n    tag_245:\n        /* \"#utility.yul\":11644:11830   */\n      pop\n      pop\n      jump\t// out\n        /* \"#utility.yul\":11836:12379   */\n    tag_114:\n        /* \"#utility.yul\":11937:11939   */\n      0x1f\n        /* \"#utility.yul\":11932:11935   */\n      dup3\n        /* \"#utility.yul\":11929:11940   */\n      gt\n        /* \"#utility.yul\":11926:12372   */\n      iszero\n      tag_248\n      jumpi\n        /* \"#utility.yul\":11971:12009   */\n      tag_249\n        /* \"#utility.yul\":12003:12008   */\n      dup2\n        /* \"#utility.yul\":11971:12009   */\n      tag_103\n      jump\t// in\n    tag_249:\n        /* \"#utility.yul\":12055:12084   */\n      tag_250\n        /* \"#utility.yul\":12073:12083   */\n      dup5\n        /* \"#utility.yul\":12055:12084   */\n      tag_104\n      jump\t// in\n    tag_250:\n        /* \"#utility.yul\":12045:12053   */\n      dup2\n        /* \"#utility.yul\":12041:12085   */\n      add\n        /* \"#utility.yul\":12238:12240   */\n      0x20\n        /* \"#utility.yul\":12226:12236   */\n      dup6\n        /* \"#utility.yul\":12223:12241   */\n      lt\n        /* \"#utility.yul\":12220:12269   */\n      iszero\n      tag_251\n      jumpi\n        /* \"#utility.yul\":12259:12267   */\n      dup2\n        /* \"#utility.yul\":12244:12267   */\n      swap1\n      pop\n        /* \"#utility.yul\":12220:12269   */\n    tag_251:\n        /* \"#utility.yul\":12282:12362   */\n      tag_252\n        /* \"#utility.yul\":12338:12360   */\n      tag_253\n        /* \"#utility.yul\":12356:12359   */\n      dup6\n        /* \"#utility.yul\":12338:12360   */\n      tag_104\n      jump\t// in\n    tag_253:\n        /* \"#utility.yul\":12328:12336   */\n      dup4\n        /* \"#utility.yul\":12324:12361   */\n      add\n        /* \"#utility.yul\":12311:12322   */\n      dup3\n        /* \"#utility.yul\":12282:12362   */\n      tag_113\n      jump\t// in\n    tag_252:\n        /* \"#utility.yul\":11941:12372   */\n      pop\n      pop\n        /* \"#utility.yul\":11926:12372   */\n    tag_248:\n        /* \"#utility.yul\":11836:12379   */\n      pop\n      pop\n      pop\n      jump\t// out\n        /* \"#utility.yul\":12385:12502   */\n    tag_115:\n        /* \"#utility.yul\":12439:12447   */\n      0x00\n        /* \"#utility.yul\":12489:12494   */\n      dup3\n        /* \"#utility.yul\":12483:12487   */\n      dup3\n        /* \"#utility.yul\":12479:12495   */\n      shr\n        /* \"#utility.yul\":12458:12495   */\n      swap1\n      pop\n        /* \"#utility.yul\":12385:12502   */\n      swap3\n      swap2\n      pop\n      pop\n      jump\t// out\n        /* \"#utility.yul\":12508:12677   */\n    tag_116:\n        /* \"#utility.yul\":12552:12558   */\n      0x00\n        /* \"#utility.yul\":12585:12636   */\n      tag_256\n        /* \"#utility.yul\":12633:12634   */\n      0x00\n        /* \"#utility.yul\":12629:12635   */\n      not\n        /* \"#utility.yul\":12621:12626   */\n      dup5\n        /* \"#utility.yul\":12618:12619   */\n      0x08\n        /* \"#utility.yul\":12614:12627   */\n      mul\n        /* \"#utility.yul\":12585:12636   */\n      tag_115\n      jump\t// in\n    tag_256:\n        /* \"#utility.yul\":12581:12637   */\n      not\n        /* \"#utility.yul\":12666:12670   */\n      dup1\n        /* \"#utility.yul\":12660:12664   */\n      dup4\n        /* \"#utility.yul\":12656:12671   */\n      and\n        /* \"#utility.yul\":12646:12671   */\n      swap2\n      pop\n        /* \"#utility.yul\":12559:12677   */\n      pop\n        /* \"#utility.yul\":12508:12677   */\n      swap3\n      swap2\n      pop\n      pop\n      jump\t// out\n        /* \"#utility.yul\":12682:12977   */\n    tag_117:\n        /* \"#utility.yul\":12758:12762   */\n      0x00\n        /* \"#utility.yul\":12904:12933   */\n      tag_258\n        /* \"#utility.yul\":12929:12932   */\n      dup4\n        /* \"#utility.yul\":12923:12927   */\n      dup4\n        /* \"#utility.yul\":12904:12933   */\n      tag_116\n      jump\t// in\n    tag_258:\n        /* \"#utility.yul\":12896:12933   */\n      swap2\n      pop\n        /* \"#utility.yul\":12966:12969   */\n      dup3\n        /* \"#utility.yul\":12963:12964   */\n      0x02\n        /* \"#utility.yul\":12959:12970   */\n      mul\n        /* \"#utility.yul\":12953:12957   */\n      dup3\n        /* \"#utility.yul\":12950:12971   */\n      or\n        /* \"#utility.yul\":12942:12971   */\n      swap1\n      pop\n        /* \"#utility.yul\":12682:12977   */\n      swap3\n      swap2\n      pop\n      pop\n      jump\t// out\n        /* \"#utility.yul\":12982:14377   */\n    tag_59:\n        /* \"#utility.yul\":13099:13136   */\n      tag_260\n        /* \"#utility.yul\":13132:13135   */\n      dup3\n        /* \"#utility.yul\":13099:13136   */\n      tag_82\n      jump\t// in\n    tag_260:\n        /* \"#utility.yul\":13201:13219   */\n      0xffffffffffffffff\n        /* \"#utility.yul\":13193:13199   */\n      dup2\n        /* \"#utility.yul\":13190:13220   */\n      gt\n        /* \"#utility.yul\":13187:13243   */\n      iszero\n      tag_261\n      jumpi\n        /* \"#utility.yul\":13223:13241   */\n      tag_262\n      tag_102\n      jump\t// in\n    tag_262:\n        /* \"#utility.yul\":13187:13243   */\n    tag_261:\n        /* \"#utility.yul\":13267:13305   */\n      tag_263\n        /* \"#utility.yul\":13299:13303   */\n      dup3\n        /* \"#utility.yul\":13293:13304   */\n      sload\n        /* \"#utility.yul\":13267:13305   */\n      tag_38\n      jump\t// in\n    tag_263:\n        /* \"#utility.yul\":13352:13419   */\n      tag_264\n        /* \"#utility.yul\":13412:13418   */\n      dup3\n        /* \"#utility.yul\":13404:13410   */\n      dup3\n        /* \"#utility.yul\":13398:13402   */\n      dup6\n        /* \"#utility.yul\":13352:13419   */\n      tag_114\n      jump\t// in\n    tag_264:\n        /* \"#utility.yul\":13446:13447   */\n      0x00\n        /* \"#utility.yul\":13470:13474   */\n      0x20\n        /* \"#utility.yul\":13457:13474   */\n      swap1\n      pop\n        /* \"#utility.yul\":13502:13504   */\n      0x1f\n        /* \"#utility.yul\":13494:13500   */\n      dup4\n        /* \"#utility.yul\":13491:13505   */\n      gt\n        /* \"#utility.yul\":13519:13520   */\n      0x01\n        /* \"#utility.yul\":13514:14132   */\n      dup2\n      eq\n      tag_266\n      jumpi\n        /* \"#utility.yul\":14176:14177   */\n      0x00\n        /* \"#utility.yul\":14193:14199   */\n      dup5\n        /* \"#utility.yul\":14190:14267   */\n      iszero\n      tag_267\n      jumpi\n        /* \"#utility.yul\":14242:14251   */\n      dup3\n        /* \"#utility.yul\":14237:14240   */\n      dup8\n        /* \"#utility.yul\":14233:14252   */\n      add\n        /* \"#utility.yul\":14227:14253   */\n      mload\n        /* \"#utility.yul\":14218:14253   */\n      swap1\n      pop\n        /* \"#utility.yul\":14190:14267   */\n    tag_267:\n        /* \"#utility.yul\":14293:14360   */\n      tag_268\n        /* \"#utility.yul\":14353:14359   */\n      dup6\n        /* \"#utility.yul\":14346:14351   */\n      dup3\n        /* \"#utility.yul\":14293:14360   */\n      tag_117\n      jump\t// in\n    tag_268:\n        /* \"#utility.yul\":14287:14291   */\n      dup7\n        /* \"#utility.yul\":14280:14361   */\n      sstore\n        /* \"#utility.yul\":14149:14371   */\n      pop\n        /* \"#utility.yul\":13484:14371   */\n      jump(tag_265)\n        /* \"#utility.yul\":13514:14132   */\n    tag_266:\n        /* \"#utility.yul\":13566:13570   */\n      0x1f\n        /* \"#utility.yul\":13562:13571   */\n      not\n        /* \"#utility.yul\":13554:13560   */\n      dup5\n        /* \"#utility.yul\":13550:13572   */\n      and\n        /* \"#utility.yul\":13600:13637   */\n      tag_269\n        /* \"#utility.yul\":13632:13636   */\n      dup7\n        /* \"#utility.yul\":13600:13637   */\n      tag_103\n      jump\t// in\n    tag_269:\n        /* \"#utility.yul\":13659:13660   */\n      0x00\n        /* \"#utility.yul\":13673:13881   */\n    tag_270:\n        /* \"#utility.yul\":13687:13694   */\n      dup3\n        /* \"#utility.yul\":13684:13685   */\n      dup2\n        /* \"#utility.yul\":13681:13695   */\n      lt\n        /* \"#utility.yul\":13673:13881   */\n      iszero\n      tag_272\n      jumpi\n        /* \"#utility.yul\":13766:13775   */\n      dup5\n        /* \"#utility.yul\":13761:13764   */\n      dup10\n        /* \"#utility.yul\":13757:13776   */\n      add\n        /* \"#utility.yul\":13751:13777   */\n      mload\n        /* \"#utility.yul\":13743:13749   */\n      dup3\n        /* \"#utility.yul\":13736:13778   */\n      sstore\n        /* \"#utility.yul\":13817:13818   */\n      0x01\n        /* \"#utility.yul\":13809:13815   */\n      dup3\n        /* \"#utility.yul\":13805:13819   */\n      add\n        /* \"#utility.yul\":13795:13819   */\n      swap2\n      pop\n        /* \"#utility.yul\":13864:13866   */\n      0x20\n        /* \"#utility.yul\":13853:13862   */\n      dup6\n        /* \"#utility.yul\":13849:13867   */\n      add\n        /* \"#utility.yul\":13836:13867   */\n      swap5\n      pop\n        /* \"#utility.yul\":13710:13714   */\n      0x20\n        /* \"#utility.yul\":13707:13708   */\n      dup2\n        /* \"#utility.yul\":13703:13715   */\n      add\n        /* \"#utility.yul\":13698:13715   */\n      swap1\n      pop\n        /* \"#utility.yul\":13673:13881   */\n      jump(tag_270)\n    tag_272:\n        /* \"#utility.yul\":13909:13915   */\n      dup7\n        /* \"#utility.yul\":13900:13907   */\n      dup4\n        /* \"#utility.yul\":13897:13916   */\n      lt\n        /* \"#utility.yul\":13894:14073   */\n      iszero\n      tag_273\n      jumpi\n        /* \"#utility.yul\":13967:13976   */\n      dup5\n        /* \"#utility.yul\":13962:13965   */\n      dup10\n        /* \"#utility.yul\":13958:13977   */\n      add\n        /* \"#utility.yul\":13952:13978   */\n      mload\n        /* \"#utility.yul\":14010:14058   */\n      tag_274\n        /* \"#utility.yul\":14052:14056   */\n      0x1f\n        /* \"#utility.yul\":14044:14050   */\n      dup10\n        /* \"#utility.yul\":14040:14057   */\n      and\n        /* \"#utility.yul\":14029:14038   */\n      dup3\n        /* \"#utility.yul\":14010:14058   */\n      tag_116\n      jump\t// in\n    tag_274:\n        /* \"#utility.yul\":14002:14008   */\n      dup4\n        /* \"#utility.yul\":13995:14059   */\n      sstore\n        /* \"#utility.yul\":13917:14073   */\n      pop\n        /* \"#utility.yul\":13894:14073   */\n    tag_273:\n        /* \"#utility.yul\":14119:14120   */\n      0x01\n        /* \"#utility.yul\":14115:14116   */\n      0x02\n        /* \"#utility.yul\":14107:14113   */\n      dup9\n        /* \"#utility.yul\":14103:14117   */\n      mul\n        /* \"#utility.yul\":14099:14121   */\n      add\n        /* \"#utility.yul\":14093:14097   */\n      dup9\n        /* \"#utility.yul\":14086:14122   */\n      sstore\n        /* \"#utility.yul\":13521:14132   */\n      pop\n      pop\n      pop\n        /* \"#utility.yul\":13484:14371   */\n    tag_265:\n      pop\n        /* \"#utility.yul\":13074:14377   */\n      pop\n      pop\n      pop\n        /* \"#utility.yul\":12982:14377   */\n      pop\n      pop\n      jump\t// out\n        /* \"#utility.yul\":14383:14529   */\n    tag_118:\n        /* \"#utility.yul\":14480:14486   */\n      dup3\n        /* \"#utility.yul\":14475:14478   */\n      dup2\n        /* \"#utility.yul\":14470:14473   */\n      dup4\n        /* \"#utility.yul\":14457:14487   */\n      calldatacopy\n        /* \"#utility.yul\":14521:14522   */\n      0x00\n        /* \"#utility.yul\":14512:14518   */\n      dup4\n        /* \"#utility.yul\":14507:14510   */\n      dup4\n        /* \"#utility.yul\":14503:14519   */\n      add\n        /* \"#utility.yul\":14496:14523   */\n      mstore\n        /* \"#utility.yul\":14383:14529   */\n      pop\n      pop\n      pop\n      jump\t// out\n        /* \"#utility.yul\":14559:14876   */\n    tag_119:\n        /* \"#utility.yul\":14657:14660   */\n      0x00\n        /* \"#utility.yul\":14678:14749   */\n      tag_277\n        /* \"#utility.yul\":14742:14748   */\n      dup4\n        /* \"#utility.yul\":14737:14740   */\n      dup6\n        /* \"#utility.yul\":14678:14749   */\n      tag_83\n      jump\t// in\n    tag_277:\n        /* \"#utility.yul\":14671:14749   */\n      swap4\n      pop\n        /* \"#utility.yul\":14759:14815   */\n      tag_278\n        /* \"#utility.yul\":14808:14814   */\n      dup4\n        /* \"#utility.yul\":14803:14806   */\n      dup6\n        /* \"#utility.yul\":14796:14801   */\n      dup5\n        /* \"#utility.yul\":14759:14815   */\n      tag_118\n      jump\t// in\n    tag_278:\n        /* \"#utility.yul\":14840:14869   */\n      tag_279\n        /* \"#utility.yul\":14862:14868   */\n      dup4\n        /* \"#utility.yul\":14840:14869   */\n      tag_85\n      jump\t// in\n    tag_279:\n        /* \"#utility.yul\":14835:14838   */\n      dup5\n        /* \"#utility.yul\":14831:14870   */\n      add\n        /* \"#utility.yul\":14824:14870   */\n      swap1\n      pop\n        /* \"#utility.yul\":14559:14876   */\n      swap4\n      swap3\n      pop\n      pop\n      pop\n      jump\t// out\n        /* \"#utility.yul\":14882:15546   */\n    tag_61:\n        /* \"#utility.yul\":15089:15093   */\n      0x00\n        /* \"#utility.yul\":15127:15130   */\n      0x80\n        /* \"#utility.yul\":15116:15125   */\n      dup3\n        /* \"#utility.yul\":15112:15131   */\n      add\n        /* \"#utility.yul\":15104:15131   */\n      swap1\n      pop\n        /* \"#utility.yul\":15141:15212   */\n      tag_281\n        /* \"#utility.yul\":15209:15210   */\n      0x00\n        /* \"#utility.yul\":15198:15207   */\n      dup4\n        /* \"#utility.yul\":15194:15211   */\n      add\n        /* \"#utility.yul\":15185:15191   */\n      dup9\n        /* \"#utility.yul\":15141:15212   */\n      tag_78\n      jump\t// in\n    tag_281:\n        /* \"#utility.yul\":15222:15294   */\n      tag_282\n        /* \"#utility.yul\":15290:15292   */\n      0x20\n        /* \"#utility.yul\":15279:15288   */\n      dup4\n        /* \"#utility.yul\":15275:15293   */\n      add\n        /* \"#utility.yul\":15266:15272   */\n      dup8\n        /* \"#utility.yul\":15222:15294   */\n      tag_81\n      jump\t// in\n    tag_282:\n        /* \"#utility.yul\":15341:15350   */\n      dup2\n        /* \"#utility.yul\":15335:15339   */\n      dup2\n        /* \"#utility.yul\":15331:15351   */\n      sub\n        /* \"#utility.yul\":15326:15328   */\n      0x40\n        /* \"#utility.yul\":15315:15324   */\n      dup4\n        /* \"#utility.yul\":15311:15329   */\n      add\n        /* \"#utility.yul\":15304:15352   */\n      mstore\n        /* \"#utility.yul\":15369:15457   */\n      tag_283\n        /* \"#utility.yul\":15452:15456   */\n      dup2\n        /* \"#utility.yul\":15443:15449   */\n      dup6\n        /* \"#utility.yul\":15435:15441   */\n      dup8\n        /* \"#utility.yul\":15369:15457   */\n      tag_119\n      jump\t// in\n    tag_283:\n        /* \"#utility.yul\":15361:15457   */\n      swap1\n      pop\n        /* \"#utility.yul\":15467:15539   */\n      tag_284\n        /* \"#utility.yul\":15535:15537   */\n      0x60\n        /* \"#utility.yul\":15524:15533   */\n      dup4\n        /* \"#utility.yul\":15520:15538   */\n      add\n        /* \"#utility.yul\":15511:15517   */\n      dup5\n        /* \"#utility.yul\":15467:15539   */\n      tag_78\n      jump\t// in\n    tag_284:\n        /* \"#utility.yul\":14882:15546   */\n      swap7\n      swap6\n      pop\n      pop\n      pop\n      pop\n      pop\n      pop\n      jump\t// out\n        /* \"#utility.yul\":15552:15649   */\n    tag_120:\n        /* \"#utility.yul\":15611:15617   */\n      0x00\n        /* \"#utility.yul\":15639:15642   */\n      dup3\n        /* \"#utility.yul\":15629:15642   */\n      swap1\n      pop\n        /* \"#utility.yul\":15552:15649   */\n      swap3\n      swap2\n      pop\n      pop\n      jump\t// out\n        /* \"#utility.yul\":15655:17058   */\n    tag_64:\n        /* \"#utility.yul\":15779:15823   */\n      tag_287\n        /* \"#utility.yul\":15819:15822   */\n      dup4\n        /* \"#utility.yul\":15814:15817   */\n      dup4\n        /* \"#utility.yul\":15779:15823   */\n      tag_120\n      jump\t// in\n    tag_287:\n        /* \"#utility.yul\":15888:15906   */\n      0xffffffffffffffff\n        /* \"#utility.yul\":15880:15886   */\n      dup2\n        /* \"#utility.yul\":15877:15907   */\n      gt\n        /* \"#utility.yul\":15874:15930   */\n      iszero\n      tag_288\n      jumpi\n        /* \"#utility.yul\":15910:15928   */\n      tag_289\n      tag_102\n      jump\t// in\n    tag_289:\n        /* \"#utility.yul\":15874:15930   */\n    tag_288:\n        /* \"#utility.yul\":15954:15992   */\n      tag_290\n        /* \"#utility.yul\":15986:15990   */\n      dup3\n        /* \"#utility.yul\":15980:15991   */\n      sload\n        /* \"#utility.yul\":15954:15992   */\n      tag_38\n      jump\t// in\n    tag_290:\n        /* \"#utility.yul\":16039:16106   */\n      tag_291\n        /* \"#utility.yul\":16099:16105   */\n      dup3\n        /* \"#utility.yul\":16091:16097   */\n      dup3\n        /* \"#utility.yul\":16085:16089   */\n      dup6\n        /* \"#utility.yul\":16039:16106   */\n      tag_114\n      jump\t// in\n    tag_291:\n        /* \"#utility.yul\":16133:16134   */\n      0x00\n        /* \"#utility.yul\":16162:16164   */\n      0x1f\n        /* \"#utility.yul\":16154:16160   */\n      dup4\n        /* \"#utility.yul\":16151:16165   */\n      gt\n        /* \"#utility.yul\":16179:16180   */\n      0x01\n        /* \"#utility.yul\":16174:16806   */\n      dup2\n      eq\n      tag_293\n      jumpi\n        /* \"#utility.yul\":16850:16851   */\n      0x00\n        /* \"#utility.yul\":16867:16873   */\n      dup5\n        /* \"#utility.yul\":16864:16948   */\n      iszero\n      tag_294\n      jumpi\n        /* \"#utility.yul\":16923:16932   */\n      dup3\n        /* \"#utility.yul\":16918:16921   */\n      dup8\n        /* \"#utility.yul\":16914:16933   */\n      add\n        /* \"#utility.yul\":16901:16934   */\n      calldataload\n        /* \"#utility.yul\":16892:16934   */\n      swap1\n      pop\n        /* \"#utility.yul\":16864:16948   */\n    tag_294:\n        /* \"#utility.yul\":16974:17041   */\n      tag_295\n        /* \"#utility.yul\":17034:17040   */\n      dup6\n        /* \"#utility.yul\":17027:17032   */\n      dup3\n        /* \"#utility.yul\":16974:17041   */\n      tag_117\n      jump\t// in\n    tag_295:\n        /* \"#utility.yul\":16968:16972   */\n      dup7\n        /* \"#utility.yul\":16961:17042   */\n      sstore\n        /* \"#utility.yul\":16823:17052   */\n      pop\n        /* \"#utility.yul\":16144:17052   */\n      jump(tag_292)\n        /* \"#utility.yul\":16174:16806   */\n    tag_293:\n        /* \"#utility.yul\":16226:16230   */\n      0x1f\n        /* \"#utility.yul\":16222:16231   */\n      not\n        /* \"#utility.yul\":16214:16220   */\n      dup5\n        /* \"#utility.yul\":16210:16232   */\n      and\n        /* \"#utility.yul\":16260:16297   */\n      tag_296\n        /* \"#utility.yul\":16292:16296   */\n      dup7\n        /* \"#utility.yul\":16260:16297   */\n      tag_103\n      jump\t// in\n    tag_296:\n        /* \"#utility.yul\":16319:16320   */\n      0x00\n        /* \"#utility.yul\":16333:16548   */\n    tag_297:\n        /* \"#utility.yul\":16347:16354   */\n      dup3\n        /* \"#utility.yul\":16344:16345   */\n      dup2\n        /* \"#utility.yul\":16341:16355   */\n      lt\n        /* \"#utility.yul\":16333:16548   */\n      iszero\n      tag_299\n      jumpi\n        /* \"#utility.yul\":16433:16442   */\n      dup5\n        /* \"#utility.yul\":16428:16431   */\n      dup10\n        /* \"#utility.yul\":16424:16443   */\n      add\n        /* \"#utility.yul\":16411:16444   */\n      calldataload\n        /* \"#utility.yul\":16403:16409   */\n      dup3\n        /* \"#utility.yul\":16396:16445   */\n      sstore\n        /* \"#utility.yul\":16484:16485   */\n      0x01\n        /* \"#utility.yul\":16476:16482   */\n      dup3\n        /* \"#utility.yul\":16472:16486   */\n      add\n        /* \"#utility.yul\":16462:16486   */\n      swap2\n      pop\n        /* \"#utility.yul\":16531:16533   */\n      0x20\n        /* \"#utility.yul\":16520:16529   */\n      dup6\n        /* \"#utility.yul\":16516:16534   */\n      add\n        /* \"#utility.yul\":16503:16534   */\n      swap5\n      pop\n        /* \"#utility.yul\":16370:16374   */\n      0x20\n        /* \"#utility.yul\":16367:16368   */\n      dup2\n        /* \"#utility.yul\":16363:16375   */\n      add\n        /* \"#utility.yul\":16358:16375   */\n      swap1\n      pop\n        /* \"#utility.yul\":16333:16548   */\n      jump(tag_297)\n    tag_299:\n        /* \"#utility.yul\":16576:16582   */\n      dup7\n        /* \"#utility.yul\":16567:16574   */\n      dup4\n        /* \"#utility.yul\":16564:16583   */\n      lt\n        /* \"#utility.yul\":16561:16747   */\n      iszero\n      tag_300\n      jumpi\n        /* \"#utility.yul\":16641:16650   */\n      dup5\n        /* \"#utility.yul\":16636:16639   */\n      dup10\n        /* \"#utility.yul\":16632:16651   */\n      add\n        /* \"#utility.yul\":16619:16652   */\n      calldataload\n        /* \"#utility.yul\":16684:16732   */\n      tag_301\n        /* \"#utility.yul\":16726:16730   */\n      0x1f\n        /* \"#utility.yul\":16718:16724   */\n      dup10\n        /* \"#utility.yul\":16714:16731   */\n      and\n        /* \"#utility.yul\":16703:16712   */\n      dup3\n        /* \"#utility.yul\":16684:16732   */\n      tag_116\n      jump\t// in\n    tag_301:\n        /* \"#utility.yul\":16676:16682   */\n      dup4\n        /* \"#utility.yul\":16669:16733   */\n      sstore\n        /* \"#utility.yul\":16584:16747   */\n      pop\n        /* \"#utility.yul\":16561:16747   */\n    tag_300:\n        /* \"#utility.yul\":16793:16794   */\n      0x01\n        /* \"#utility.yul\":16789:16790   */\n      0x02\n        /* \"#utility.yul\":16781:16787   */\n      dup9\n        /* \"#utility.yul\":16777:16791   */\n      mul\n        /* \"#utility.yul\":16773:16795   */\n      add\n        /* \"#utility.yul\":16767:16771   */\n      dup9\n        /* \"#utility.yul\":16760:16796   */\n      sstore\n        /* \"#utility.yul\":16181:16806   */\n      pop\n      pop\n      pop\n        /* \"#utility.yul\":16144:17052   */\n    tag_292:\n      pop\n        /* \"#utility.yul\":15754:17058   */\n      pop\n      pop\n      pop\n        /* \"#utility.yul\":15655:17058   */\n      pop\n      pop\n      pop\n      jump\t// out\n        /* \"#utility.yul\":17064:17507   */\n    tag_66:\n        /* \"#utility.yul\":17215:17219   */\n      0x00\n        /* \"#utility.yul\":17253:17255   */\n      0x40\n        /* \"#utility.yul\":17242:17251   */\n      dup3\n        /* \"#utility.yul\":17238:17256   */\n      add\n        /* \"#utility.yul\":17230:17256   */\n      swap1\n      pop\n        /* \"#utility.yul\":17266:17337   */\n      tag_303\n        /* \"#utility.yul\":17334:17335   */\n      0x00\n        /* \"#utility.yul\":17323:17332   */\n      dup4\n        /* \"#utility.yul\":17319:17336   */\n      add\n        /* \"#utility.yul\":17310:17316   */\n      dup7\n        /* \"#utility.yul\":17266:17337   */\n      tag_81\n      jump\t// in\n    tag_303:\n        /* \"#utility.yul\":17384:17393   */\n      dup2\n        /* \"#utility.yul\":17378:17382   */\n      dup2\n        /* \"#utility.yul\":17374:17394   */\n      sub\n        /* \"#utility.yul\":17369:17371   */\n      0x20\n        /* \"#utility.yul\":17358:17367   */\n      dup4\n        /* \"#utility.yul\":17354:17372   */\n      add\n        /* \"#utility.yul\":17347:17395   */\n      mstore\n        /* \"#utility.yul\":17412:17500   */\n      tag_304\n        /* \"#utility.yul\":17495:17499   */\n      dup2\n        /* \"#utility.yul\":17486:17492   */\n      dup5\n        /* \"#utility.yul\":17478:17484   */\n      dup7\n        /* \"#utility.yul\":17412:17500   */\n      tag_119\n      jump\t// in\n    tag_304:\n        /* \"#utility.yul\":17404:17500   */\n      swap1\n      pop\n        /* \"#utility.yul\":17064:17507   */\n      swap5\n      swap4\n      pop\n      pop\n      pop\n      pop\n      jump\t// out\n\n    auxdata: 0xa2646970667358221220b4e54877ce4e7476580f71ac27274a4f4ad3a82ee3eb5c0d6639c0d331a1ee6164736f6c63430008110033\n}\n",
				"bytecode": {
					"linkReferences": {},
					"object": "608060405234801561001057600080fd5b50611000806100206000396000f3fe608060405234801561001057600080fd5b50600436106100625760003560e01c80630b1e7f831461006757806317906c2e1461009a57806340731c24146100b8578063c7303c61146100e8578063ed59313a14610104578063ee91877c14610120575b600080fd5b610081600480360381019061007c91906106b5565b610150565b60405161009194939291906107c2565b60405180910390f35b6100a2610228565b6040516100af919061080e565b60405180910390f35b6100d260048036038101906100cd91906106b5565b61022e565b6040516100df91906108f4565b60405180910390f35b61010260048036038101906100fd919061097b565b6103a7565b005b61011e6004803603810190610119919061097b565b610509565b005b61013a600480360381019061013591906109f4565b610597565b6040516101479190610a21565b60405180910390f35b60006020528060005260406000206000915090508060000154908060010160009054906101000a900473ffffffffffffffffffffffffffffffffffffffff169080600201805461019f90610a72565b80601f01602080910402602001604051908101604052809291908181526020018280546101cb90610a72565b80156102185780601f106101ed57610100808354040283529160200191610218565b820191906000526020600020905b8154815290600101906020018083116101fb57829003601f168201915b5050505050908060030154905084565b60015481565b610236610637565b60008211801561024857506001548211155b610287576040517f08c379a000000000000000000000000000000000000000000000000000000000815260040161027e90610aef565b60405180910390fd5b600080838152602001908152602001600020604051806080016040529081600082015481526020016001820160009054906101000a900473ffffffffffffffffffffffffffffffffffffffff1673ffffffffffffffffffffffffffffffffffffffff1673ffffffffffffffffffffffffffffffffffffffff16815260200160028201805461031490610a72565b80601f016020809104026020016040519081016040528092919081815260200182805461034090610a72565b801561038d5780601f106103625761010080835404028352916020019161038d565b820191906000526020600020905b81548152906001019060200180831161037057829003601f168201915b505050505081526020016003820154815250509050919050565b600160008154809291906103ba90610b3e565b9190505550604051806080016040528060015481526020013373ffffffffffffffffffffffffffffffffffffffff16815260200183838080601f016020809104026020016040519081016040528093929190818152602001838380828437600081840152601f19601f8201169050808301925050505050505081526020014281525060008060015481526020019081526020016000206000820151816000015560208201518160010160006101000a81548173ffffffffffffffffffffffffffffffffffffffff021916908373ffffffffffffffffffffffffffffffffffffffff16021790555060408201518160020190816104b69190610d61565b50606082015181600301559050507f285db98a4632176385795ddf0d2b67cef1a21f47eb2f5d06f786ab6b5147e200600154338484426040516104fd959493929190610e6f565b60405180910390a15050565b8181600260003373ffffffffffffffffffffffffffffffffffffffff1673ffffffffffffffffffffffffffffffffffffffff1681526020019081526020016000209182610557929190610ec8565b507f1af4cc3acb57f067d1d582e3932be6692a4c9a31d8b3a8567dfc1c340a02d53433838360405161058b93929190610f98565b60405180910390a15050565b600260205280600052604060002060009150905080546105b690610a72565b80601f01602080910402602001604051908101604052809291908181526020018280546105e290610a72565b801561062f5780601f106106045761010080835404028352916020019161062f565b820191906000526020600020905b81548152906001019060200180831161061257829003601f168201915b505050505081565b604051806080016040528060008152602001600073ffffffffffffffffffffffffffffffffffffffff16815260200160608152602001600081525090565b600080fd5b600080fd5b6000819050919050565b6106928161067f565b811461069d57600080fd5b50565b6000813590506106af81610689565b92915050565b6000602082840312156106cb576106ca610675565b5b60006106d9848285016106a0565b91505092915050565b6106eb8161067f565b82525050565b600073ffffffffffffffffffffffffffffffffffffffff82169050919050565b600061071c826106f1565b9050919050565b61072c81610711565b82525050565b600081519050919050565b600082825260208201905092915050565b60005b8381101561076c578082015181840152602081019050610751565b60008484015250505050565b6000601f19601f8301169050919050565b600061079482610732565b61079e818561073d565b93506107ae81856020860161074e565b6107b781610778565b840191505092915050565b60006080820190506107d760008301876106e2565b6107e46020830186610723565b81810360408301526107f68185610789565b905061080560608301846106e2565b95945050505050565b600060208201905061082360008301846106e2565b92915050565b6108328161067f565b82525050565b61084181610711565b82525050565b600082825260208201905092915050565b600061086382610732565b61086d8185610847565b935061087d81856020860161074e565b61088681610778565b840191505092915050565b60006080830160008301516108a96000860182610829565b5060208301516108bc6020860182610838565b50604083015184820360408601526108d48282610858565b91505060608301516108e96060860182610829565b508091505092915050565b6000602082019050818103600083015261090e8184610891565b905092915050565b600080fd5b600080fd5b600080fd5b60008083601f84011261093b5761093a610916565b5b8235905067ffffffffffffffff8111156109585761095761091b565b5b60208301915083600182028301111561097457610973610920565b5b9250929050565b6000806020838503121561099257610991610675565b5b600083013567ffffffffffffffff8111156109b0576109af61067a565b5b6109bc85828601610925565b92509250509250929050565b6109d181610711565b81146109dc57600080fd5b50565b6000813590506109ee816109c8565b92915050565b600060208284031215610a0a57610a09610675565b5b6000610a18848285016109df565b91505092915050565b60006020820190508181036000830152610a3b8184610789565b905092915050565b7f4e487b7100000000000000000000000000000000000000000000000000000000600052602260045260246000fd5b60006002820490506001821680610a8a57607f821691505b602082108103610a9d57610a9c610a43565b5b50919050565b7f496e76616c696420506f73742049440000000000000000000000000000000000600082015250565b6000610ad9600f8361073d565b9150610ae482610aa3565b602082019050919050565b60006020820190508181036000830152610b0881610acc565b9050919050565b7f4e487b7100000000000000000000000000000000000000000000000000000000600052601160045260246000fd5b6000610b498261067f565b91507fffffffffffffffffffffffffffffffffffffffffffffffffffffffffffffffff8203610b7b57610b7a610b0f565b5b600182019050919050565b7f4e487b7100000000000000000000000000000000000000000000000000000000600052604160045260246000fd5b60008190508160005260206000209050919050565b60006020601f8301049050919050565b600082821b905092915050565b600060088302610c177fffffffffffffffffffffffffffffffffffffffffffffffffffffffffffffffff82610bda565b610c218683610bda565b95508019841693508086168417925050509392505050565b6000819050919050565b6000610c5e610c59610c548461067f565b610c39565b61067f565b9050919050565b6000819050919050565b610c7883610c43565b610c8c610c8482610c65565b848454610be7565b825550505050565b600090565b610ca1610c94565b610cac818484610c6f565b505050565b5b81811015610cd057610cc5600082610c99565b600181019050610cb2565b5050565b601f821115610d1557610ce681610bb5565b610cef84610bca565b81016020851015610cfe578190505b610d12610d0a85610bca565b830182610cb1565b50505b505050565b600082821c905092915050565b6000610d3860001984600802610d1a565b1980831691505092915050565b6000610d518383610d27565b9150826002028217905092915050565b610d6a82610732565b67ffffffffffffffff811115610d8357610d82610b86565b5b610d8d8254610a72565b610d98828285610cd4565b600060209050601f831160018114610dcb5760008415610db9578287015190505b610dc38582610d45565b865550610e2b565b601f198416610dd986610bb5565b60005b82811015610e0157848901518255600182019150602085019450602081019050610ddc565b86831015610e1e5784890151610e1a601f891682610d27565b8355505b6001600288020188555050505b505050505050565b82818337600083830152505050565b6000610e4e838561073d565b9350610e5b838584610e33565b610e6483610778565b840190509392505050565b6000608082019050610e8460008301886106e2565b610e916020830187610723565b8181036040830152610ea4818587610e42565b9050610eb360608301846106e2565b9695505050505050565b600082905092915050565b610ed28383610ebd565b67ffffffffffffffff811115610eeb57610eea610b86565b5b610ef58254610a72565b610f00828285610cd4565b6000601f831160018114610f2f5760008415610f1d578287013590505b610f278582610d45565b865550610f8f565b601f198416610f3d86610bb5565b60005b82811015610f6557848901358255600182019150602085019450602081019050610f40565b86831015610f825784890135610f7e601f891682610d27565b8355505b6001600288020188555050505b50505050505050565b6000604082019050610fad6000830186610723565b8181036020830152610fc0818486610e42565b905094935050505056fea2646970667358221220b4e54877ce4e7476580f71ac27274a4f4ad3a82ee3eb5c0d6639c0d331a1ee6164736f6c63430008110033",
					"opcodes": "PUSH1 0x80 PUSH1 0x40 MSTORE CALLVALUE DUP1 ISZERO PUSH2 0x10 JUMPI PUSH1 0x0 DUP1 REVERT JUMPDEST POP PUSH2 0x1000 DUP1 PUSH2 0x20 PUSH1 0x0 CODECOPY PUSH1 0x0 RETURN INVALID PUSH1 0x80 PUSH1 0x40 MSTORE CALLVALUE DUP1 ISZERO PUSH2 0x10 JUMPI PUSH1 0x0 DUP1 REVERT JUMPDEST POP PUSH1 0x4 CALLDATASIZE LT PUSH2 0x62 JUMPI PUSH1 0x0 CALLDATALOAD PUSH1 0xE0 SHR DUP1 PUSH4 0xB1E7F83 EQ PUSH2 0x67 JUMPI DUP1 PUSH4 0x17906C2E EQ PUSH2 0x9A JUMPI DUP1 PUSH4 0x40731C24 EQ PUSH2 0xB8 JUMPI DUP1 PUSH4 0xC7303C61 EQ PUSH2 0xE8 JUMPI DUP1 PUSH4 0xED59313A EQ PUSH2 0x104 JUMPI DUP1 PUSH4 0xEE91877C EQ PUSH2 0x120 JUMPI JUMPDEST PUSH1 0x0 DUP1 REVERT JUMPDEST PUSH2 0x81 PUSH1 0x4 DUP1 CALLDATASIZE SUB DUP2 ADD SWAP1 PUSH2 0x7C SWAP2 SWAP1 PUSH2 0x6B5 JUMP JUMPDEST PUSH2 0x150 JUMP JUMPDEST PUSH1 0x40 MLOAD PUSH2 0x91 SWAP5 SWAP4 SWAP3 SWAP2 SWAP1 PUSH2 0x7C2 JUMP JUMPDEST PUSH1 0x40 MLOAD DUP1 SWAP2 SUB SWAP1 RETURN JUMPDEST PUSH2 0xA2 PUSH2 0x228 JUMP JUMPDEST PUSH1 0x40 MLOAD PUSH2 0xAF SWAP2 SWAP1 PUSH2 0x80E JUMP JUMPDEST PUSH1 0x40 MLOAD DUP1 SWAP2 SUB SWAP1 RETURN JUMPDEST PUSH2 0xD2 PUSH1 0x4 DUP1 CALLDATASIZE SUB DUP2 ADD SWAP1 PUSH2 0xCD SWAP2 SWAP1 PUSH2 0x6B5 JUMP JUMPDEST PUSH2 0x22E JUMP JUMPDEST PUSH1 0x40 MLOAD PUSH2 0xDF SWAP2 SWAP1 PUSH2 0x8F4 JUMP JUMPDEST PUSH1 0x40 MLOAD DUP1 SWAP2 SUB SWAP1 RETURN JUMPDEST PUSH2 0x102 PUSH1 0x4 DUP1 CALLDATASIZE SUB DUP2 ADD SWAP1 PUSH2 0xFD SWAP2 SWAP1 PUSH2 0x97B JUMP JUMPDEST PUSH2 0x3A7 JUMP JUMPDEST STOP JUMPDEST PUSH2 0x11E PUSH1 0x4 DUP1 CALLDATASIZE SUB DUP2 ADD SWAP1 PUSH2 0x119 SWAP2 SWAP1 PUSH2 0x97B JUMP JUMPDEST PUSH2 0x509 JUMP JUMPDEST STOP JUMPDEST PUSH2 0x13A PUSH1 0x4 DUP1 CALLDATASIZE SUB DUP2 ADD SWAP1 PUSH2 0x135 SWAP2 SWAP1 PUSH2 0x9F4 JUMP JUMPDEST PUSH2 0x597 JUMP JUMPDEST PUSH1 0x40 MLOAD PUSH2 0x147 SWAP2 SWAP1 PUSH2 0xA21 JUMP JUMPDEST PUSH1 0x40 MLOAD DUP1 SWAP2 SUB SWAP1 RETURN JUMPDEST PUSH1 0x0 PUSH1 0x20 MSTORE DUP1 PUSH1 0x0 MSTORE PUSH1 0x40 PUSH1 0x0 KECCAK256 PUSH1 0x0 SWAP2 POP SWAP1 POP DUP1 PUSH1 0x0 ADD SLOAD SWAP1 DUP1 PUSH1 0x1 ADD PUSH1 0x0 SWAP1 SLOAD SWAP1 PUSH2 0x100 EXP SWAP1 DIV PUSH20 0xFFFFFFFFFFFFFFFFFFFFFFFFFFFFFFFFFFFFFFFF AND SWAP1 DUP1 PUSH1 0x2 ADD DUP1 SLOAD PUSH2 0x19F SWAP1 PUSH2 0xA72 JUMP JUMPDEST DUP1 PUSH1 0x1F ADD PUSH1 0x20 DUP1 SWAP2 DIV MUL PUSH1 0x20 ADD PUSH1 0x40 MLOAD SWAP1 DUP2 ADD PUSH1 0x40 MSTORE DUP1 SWAP3 SWAP2 SWAP1 DUP2 DUP2 MSTORE PUSH1 0x20 ADD DUP3 DUP1 SLOAD PUSH2 0x1CB SWAP1 PUSH2 0xA72 JUMP JUMPDEST DUP1 ISZERO PUSH2 0x218 JUMPI DUP1 PUSH1 0x1F LT PUSH2 0x1ED JUMPI PUSH2 0x100 DUP1 DUP4 SLOAD DIV MUL DUP4 MSTORE SWAP2 PUSH1 0x20 ADD SWAP2 PUSH2 0x218 JUMP JUMPDEST DUP3 ADD SWAP2 SWAP1 PUSH1 0x0 MSTORE PUSH1 0x20 PUSH1 0x0 KECCAK256 SWAP1 JUMPDEST DUP2 SLOAD DUP2 MSTORE SWAP1 PUSH1 0x1 ADD SWAP1 PUSH1 0x20 ADD DUP1 DUP4 GT PUSH2 0x1FB JUMPI DUP3 SWAP1 SUB PUSH1 0x1F AND DUP3 ADD SWAP2 JUMPDEST POP POP POP POP POP SWAP1 DUP1 PUSH1 0x3 ADD SLOAD SWAP1 POP DUP5 JUMP JUMPDEST PUSH1 0x1 SLOAD DUP2 JUMP JUMPDEST PUSH2 0x236 PUSH2 0x637 JUMP JUMPDEST PUSH1 0x0 DUP3 GT DUP1 ISZERO PUSH2 0x248 JUMPI POP PUSH1 0x1 SLOAD DUP3 GT ISZERO JUMPDEST PUSH2 0x287 JUMPI PUSH1 0x40 MLOAD PUSH32 0x8C379A000000000000000000000000000000000000000000000000000000000 DUP2 MSTORE PUSH1 0x4 ADD PUSH2 0x27E SWAP1 PUSH2 0xAEF JUMP JUMPDEST PUSH1 0x40 MLOAD DUP1 SWAP2 SUB SWAP1 REVERT JUMPDEST PUSH1 0x0 DUP1 DUP4 DUP2 MSTORE PUSH1 0x20 ADD SWAP1 DUP2 MSTORE PUSH1 0x20 ADD PUSH1 0x0 KECCAK256 PUSH1 0x40 MLOAD DUP1 PUSH1 0x80 ADD PUSH1 0x40 MSTORE SWAP1 DUP2 PUSH1 0x0 DUP3 ADD SLOAD DUP2 MSTORE PUSH1 0x20 ADD PUSH1 0x1 DUP3 ADD PUSH1 0x0 SWAP1 SLOAD SWAP1 PUSH2 0x100 EXP SWAP1 DIV PUSH20 0xFFFFFFFFFFFFFFFFFFFFFFFFFFFFFFFFFFFFFFFF AND PUSH20 0xFFFFFFFFFFFFFFFFFFFFFFFFFFFFFFFFFFFFFFFF AND PUSH20 0xFFFFFFFFFFFFFFFFFFFFFFFFFFFFFFFFFFFFFFFF AND DUP2 MSTORE PUSH1 0x20 ADD PUSH1 0x2 DUP3 ADD DUP1 SLOAD PUSH2 0x314 SWAP1 PUSH2 0xA72 JUMP JUMPDEST DUP1 PUSH1 0x1F ADD PUSH1 0x20 DUP1 SWAP2 DIV MUL PUSH1 0x20 ADD PUSH1 0x40 MLOAD SWAP1 DUP2 ADD PUSH1 0x40 MSTORE DUP1 SWAP3 SWAP2 SWAP1 DUP2 DUP2 MSTORE PUSH1 0x20 ADD DUP3 DUP1 SLOAD PUSH2 0x340 SWAP1 PUSH2 0xA72 JUMP JUMPDEST DUP1 ISZERO PUSH2 0x38D JUMPI DUP1 PUSH1 0x1F LT PUSH2 0x362 JUMPI PUSH2 0x100 DUP1 DUP4 SLOAD DIV MUL DUP4 MSTORE SWAP2 PUSH1 0x20 ADD SWAP2 PUSH2 0x38D JUMP JUMPDEST DUP3 ADD SWAP2 SWAP1 PUSH1 0x0 MSTORE PUSH1 0x20 PUSH1 0x0 KECCAK256 SWAP1 JUMPDEST DUP2 SLOAD DUP2 MSTORE SWAP1 PUSH1 0x1 ADD SWAP1 PUSH1 0x20 ADD DUP1 DUP4 GT PUSH2 0x370 JUMPI DUP3 SWAP1 SUB PUSH1 0x1F AND DUP3 ADD SWAP2 JUMPDEST POP POP POP POP POP DUP2 MSTORE PUSH1 0x20 ADD PUSH1 0x3 DUP3 ADD SLOAD DUP2 MSTORE POP POP SWAP1 POP SWAP2 SWAP1 POP JUMP JUMPDEST PUSH1 0x1 PUSH1 0x0 DUP2 SLOAD DUP1 SWAP3 SWAP2 SWAP1 PUSH2 0x3BA SWAP1 PUSH2 0xB3E JUMP JUMPDEST SWAP2 SWAP1 POP SSTORE POP PUSH1 0x40 MLOAD DUP1 PUSH1 0x80 ADD PUSH1 0x40 MSTORE DUP1 PUSH1 0x1 SLOAD DUP2 MSTORE PUSH1 0x20 ADD CALLER PUSH20 0xFFFFFFFFFFFFFFFFFFFFFFFFFFFFFFFFFFFFFFFF AND DUP2 MSTORE PUSH1 0x20 ADD DUP4 DUP4 DUP1 DUP1 PUSH1 0x1F ADD PUSH1 0x20 DUP1 SWAP2 DIV MUL PUSH1 0x20 ADD PUSH1 0x40 MLOAD SWAP1 DUP2 ADD PUSH1 0x40 MSTORE DUP1 SWAP4 SWAP3 SWAP2 SWAP1 DUP2 DUP2 MSTORE PUSH1 0x20 ADD DUP4 DUP4 DUP1 DUP3 DUP5 CALLDATACOPY PUSH1 0x0 DUP2 DUP5 ADD MSTORE PUSH1 0x1F NOT PUSH1 0x1F DUP3 ADD AND SWAP1 POP DUP1 DUP4 ADD SWAP3 POP POP POP POP POP POP POP DUP2 MSTORE PUSH1 0x20 ADD TIMESTAMP DUP2 MSTORE POP PUSH1 0x0 DUP1 PUSH1 0x1 SLOAD DUP2 MSTORE PUSH1 0x20 ADD SWAP1 DUP2 MSTORE PUSH1 0x20 ADD PUSH1 0x0 KECCAK256 PUSH1 0x0 DUP3 ADD MLOAD DUP2 PUSH1 0x0 ADD SSTORE PUSH1 0x20 DUP3 ADD MLOAD DUP2 PUSH1 0x1 ADD PUSH1 0x0 PUSH2 0x100 EXP DUP2 SLOAD DUP2 PUSH20 0xFFFFFFFFFFFFFFFFFFFFFFFFFFFFFFFFFFFFFFFF MUL NOT AND SWAP1 DUP4 PUSH20 0xFFFFFFFFFFFFFFFFFFFFFFFFFFFFFFFFFFFFFFFF AND MUL OR SWAP1 SSTORE POP PUSH1 0x40 DUP3 ADD MLOAD DUP2 PUSH1 0x2 ADD SWAP1 DUP2 PUSH2 0x4B6 SWAP2 SWAP1 PUSH2 0xD61 JUMP JUMPDEST POP PUSH1 0x60 DUP3 ADD MLOAD DUP2 PUSH1 0x3 ADD SSTORE SWAP1 POP POP PUSH32 0x285DB98A4632176385795DDF0D2B67CEF1A21F47EB2F5D06F786AB6B5147E200 PUSH1 0x1 SLOAD CALLER DUP5 DUP5 TIMESTAMP PUSH1 0x40 MLOAD PUSH2 0x4FD SWAP6 SWAP5 SWAP4 SWAP3 SWAP2 SWAP1 PUSH2 0xE6F JUMP JUMPDEST PUSH1 0x40 MLOAD DUP1 SWAP2 SUB SWAP1 LOG1 POP POP JUMP JUMPDEST DUP2 DUP2 PUSH1 0x2 PUSH1 0x0 CALLER PUSH20 0xFFFFFFFFFFFFFFFFFFFFFFFFFFFFFFFFFFFFFFFF AND PUSH20 0xFFFFFFFFFFFFFFFFFFFFFFFFFFFFFFFFFFFFFFFF AND DUP2 MSTORE PUSH1 0x20 ADD SWAP1 DUP2 MSTORE PUSH1 0x20 ADD PUSH1 0x0 KECCAK256 SWAP2 DUP3 PUSH2 0x557 SWAP3 SWAP2 SWAP1 PUSH2 0xEC8 JUMP JUMPDEST POP PUSH32 0x1AF4CC3ACB57F067D1D582E3932BE6692A4C9A31D8B3A8567DFC1C340A02D534 CALLER DUP4 DUP4 PUSH1 0x40 MLOAD PUSH2 0x58B SWAP4 SWAP3 SWAP2 SWAP1 PUSH2 0xF98 JUMP JUMPDEST PUSH1 0x40 MLOAD DUP1 SWAP2 SUB SWAP1 LOG1 POP POP JUMP JUMPDEST PUSH1 0x2 PUSH1 0x20 MSTORE DUP1 PUSH1 0x0 MSTORE PUSH1 0x40 PUSH1 0x0 KECCAK256 PUSH1 0x0 SWAP2 POP SWAP1 POP DUP1 SLOAD PUSH2 0x5B6 SWAP1 PUSH2 0xA72 JUMP JUMPDEST DUP1 PUSH1 0x1F ADD PUSH1 0x20 DUP1 SWAP2 DIV MUL PUSH1 0x20 ADD PUSH1 0x40 MLOAD SWAP1 DUP2 ADD PUSH1 0x40 MSTORE DUP1 SWAP3 SWAP2 SWAP1 DUP2 DUP2 MSTORE PUSH1 0x20 ADD DUP3 DUP1 SLOAD PUSH2 0x5E2 SWAP1 PUSH2 0xA72 JUMP JUMPDEST DUP1 ISZERO PUSH2 0x62F JUMPI DUP1 PUSH1 0x1F LT PUSH2 0x604 JUMPI PUSH2 0x100 DUP1 DUP4 SLOAD DIV MUL DUP4 MSTORE SWAP2 PUSH1 0x20 ADD SWAP2 PUSH2 0x62F JUMP JUMPDEST DUP3 ADD SWAP2 SWAP1 PUSH1 0x0 MSTORE PUSH1 0x20 PUSH1 0x0 KECCAK256 SWAP1 JUMPDEST DUP2 SLOAD DUP2 MSTORE SWAP1 PUSH1 0x1 ADD SWAP1 PUSH1 0x20 ADD DUP1 DUP4 GT PUSH2 0x612 JUMPI DUP3 SWAP1 SUB PUSH1 0x1F AND DUP3 ADD SWAP2 JUMPDEST POP POP POP POP POP DUP2 JUMP JUMPDEST PUSH1 0x40 MLOAD DUP1 PUSH1 0x80 ADD PUSH1 0x40 MSTORE DUP1 PUSH1 0x0 DUP2 MSTORE PUSH1 0x20 ADD PUSH1 0x0 PUSH20 0xFFFFFFFFFFFFFFFFFFFFFFFFFFFFFFFFFFFFFFFF AND DUP2 MSTORE PUSH1 0x20 ADD PUSH1 0x60 DUP2 MSTORE PUSH1 0x20 ADD PUSH1 0x0 DUP2 MSTORE POP SWAP1 JUMP JUMPDEST PUSH1 0x0 DUP1 REVERT JUMPDEST PUSH1 0x0 DUP1 REVERT JUMPDEST PUSH1 0x0 DUP2 SWAP1 POP SWAP2 SWAP1 POP JUMP JUMPDEST PUSH2 0x692 DUP2 PUSH2 0x67F JUMP JUMPDEST DUP2 EQ PUSH2 0x69D JUMPI PUSH1 0x0 DUP1 REVERT JUMPDEST POP JUMP JUMPDEST PUSH1 0x0 DUP2 CALLDATALOAD SWAP1 POP PUSH2 0x6AF DUP2 PUSH2 0x689 JUMP JUMPDEST SWAP3 SWAP2 POP POP JUMP JUMPDEST PUSH1 0x0 PUSH1 0x20 DUP3 DUP5 SUB SLT ISZERO PUSH2 0x6CB JUMPI PUSH2 0x6CA PUSH2 0x675 JUMP JUMPDEST JUMPDEST PUSH1 0x0 PUSH2 0x6D9 DUP5 DUP3 DUP6 ADD PUSH2 0x6A0 JUMP JUMPDEST SWAP2 POP POP SWAP3 SWAP2 POP POP JUMP JUMPDEST PUSH2 0x6EB DUP2 PUSH2 0x67F JUMP JUMPDEST DUP3 MSTORE POP POP JUMP JUMPDEST PUSH1 0x0 PUSH20 0xFFFFFFFFFFFFFFFFFFFFFFFFFFFFFFFFFFFFFFFF DUP3 AND SWAP1 POP SWAP2 SWAP1 POP JUMP JUMPDEST PUSH1 0x0 PUSH2 0x71C DUP3 PUSH2 0x6F1 JUMP JUMPDEST SWAP1 POP SWAP2 SWAP1 POP JUMP JUMPDEST PUSH2 0x72C DUP2 PUSH2 0x711 JUMP JUMPDEST DUP3 MSTORE POP POP JUMP JUMPDEST PUSH1 0x0 DUP2 MLOAD SWAP1 POP SWAP2 SWAP1 POP JUMP JUMPDEST PUSH1 0x0 DUP3 DUP3 MSTORE PUSH1 0x20 DUP3 ADD SWAP1 POP SWAP3 SWAP2 POP POP JUMP JUMPDEST PUSH1 0x0 JUMPDEST DUP4 DUP2 LT ISZERO PUSH2 0x76C JUMPI DUP1 DUP3 ADD MLOAD DUP2 DUP5 ADD MSTORE PUSH1 0x20 DUP2 ADD SWAP1 POP PUSH2 0x751 JUMP JUMPDEST PUSH1 0x0 DUP5 DUP5 ADD MSTORE POP POP POP POP JUMP JUMPDEST PUSH1 0x0 PUSH1 0x1F NOT PUSH1 0x1F DUP4 ADD AND SWAP1 POP SWAP2 SWAP1 POP JUMP JUMPDEST PUSH1 0x0 PUSH2 0x794 DUP3 PUSH2 0x732 JUMP JUMPDEST PUSH2 0x79E DUP2 DUP6 PUSH2 0x73D JUMP JUMPDEST SWAP4 POP PUSH2 0x7AE DUP2 DUP6 PUSH1 0x20 DUP7 ADD PUSH2 0x74E JUMP JUMPDEST PUSH2 0x7B7 DUP2 PUSH2 0x778 JUMP JUMPDEST DUP5 ADD SWAP2 POP POP SWAP3 SWAP2 POP POP JUMP JUMPDEST PUSH1 0x0 PUSH1 0x80 DUP3 ADD SWAP1 POP PUSH2 0x7D7 PUSH1 0x0 DUP4 ADD DUP8 PUSH2 0x6E2 JUMP JUMPDEST PUSH2 0x7E4 PUSH1 0x20 DUP4 ADD DUP7 PUSH2 0x723 JUMP JUMPDEST DUP2 DUP2 SUB PUSH1 0x40 DUP4 ADD MSTORE PUSH2 0x7F6 DUP2 DUP6 PUSH2 0x789 JUMP JUMPDEST SWAP1 POP PUSH2 0x805 PUSH1 0x60 DUP4 ADD DUP5 PUSH2 0x6E2 JUMP JUMPDEST SWAP6 SWAP5 POP POP POP POP POP JUMP JUMPDEST PUSH1 0x0 PUSH1 0x20 DUP3 ADD SWAP1 POP PUSH2 0x823 PUSH1 0x0 DUP4 ADD DUP5 PUSH2 0x6E2 JUMP JUMPDEST SWAP3 SWAP2 POP POP JUMP JUMPDEST PUSH2 0x832 DUP2 PUSH2 0x67F JUMP JUMPDEST DUP3 MSTORE POP POP JUMP JUMPDEST PUSH2 0x841 DUP2 PUSH2 0x711 JUMP JUMPDEST DUP3 MSTORE POP POP JUMP JUMPDEST PUSH1 0x0 DUP3 DUP3 MSTORE PUSH1 0x20 DUP3 ADD SWAP1 POP SWAP3 SWAP2 POP POP JUMP JUMPDEST PUSH1 0x0 PUSH2 0x863 DUP3 PUSH2 0x732 JUMP JUMPDEST PUSH2 0x86D DUP2 DUP6 PUSH2 0x847 JUMP JUMPDEST SWAP4 POP PUSH2 0x87D DUP2 DUP6 PUSH1 0x20 DUP7 ADD PUSH2 0x74E JUMP JUMPDEST PUSH2 0x886 DUP2 PUSH2 0x778 JUMP JUMPDEST DUP5 ADD SWAP2 POP POP SWAP3 SWAP2 POP POP JUMP JUMPDEST PUSH1 0x0 PUSH1 0x80 DUP4 ADD PUSH1 0x0 DUP4 ADD MLOAD PUSH2 0x8A9 PUSH1 0x0 DUP7 ADD DUP3 PUSH2 0x829 JUMP JUMPDEST POP PUSH1 0x20 DUP4 ADD MLOAD PUSH2 0x8BC PUSH1 0x20 DUP7 ADD DUP3 PUSH2 0x838 JUMP JUMPDEST POP PUSH1 0x40 DUP4 ADD MLOAD DUP5 DUP3 SUB PUSH1 0x40 DUP7 ADD MSTORE PUSH2 0x8D4 DUP3 DUP3 PUSH2 0x858 JUMP JUMPDEST SWAP2 POP POP PUSH1 0x60 DUP4 ADD MLOAD PUSH2 0x8E9 PUSH1 0x60 DUP7 ADD DUP3 PUSH2 0x829 JUMP JUMPDEST POP DUP1 SWAP2 POP POP SWAP3 SWAP2 POP POP JUMP JUMPDEST PUSH1 0x0 PUSH1 0x20 DUP3 ADD SWAP1 POP DUP2 DUP2 SUB PUSH1 0x0 DUP4 ADD MSTORE PUSH2 0x90E DUP2 DUP5 PUSH2 0x891 JUMP JUMPDEST SWAP1 POP SWAP3 SWAP2 POP POP JUMP JUMPDEST PUSH1 0x0 DUP1 REVERT JUMPDEST PUSH1 0x0 DUP1 REVERT JUMPDEST PUSH1 0x0 DUP1 REVERT JUMPDEST PUSH1 0x0 DUP1 DUP4 PUSH1 0x1F DUP5 ADD SLT PUSH2 0x93B JUMPI PUSH2 0x93A PUSH2 0x916 JUMP JUMPDEST JUMPDEST DUP3 CALLDATALOAD SWAP1 POP PUSH8 0xFFFFFFFFFFFFFFFF DUP2 GT ISZERO PUSH2 0x958 JUMPI PUSH2 0x957 PUSH2 0x91B JUMP JUMPDEST JUMPDEST PUSH1 0x20 DUP4 ADD SWAP2 POP DUP4 PUSH1 0x1 DUP3 MUL DUP4 ADD GT ISZERO PUSH2 0x974 JUMPI PUSH2 0x973 PUSH2 0x920 JUMP JUMPDEST JUMPDEST SWAP3 POP SWAP3 SWAP1 POP JUMP JUMPDEST PUSH1 0x0 DUP1 PUSH1 0x20 DUP4 DUP6 SUB SLT ISZERO PUSH2 0x992 JUMPI PUSH2 0x991 PUSH2 0x675 JUMP JUMPDEST JUMPDEST PUSH1 0x0 DUP4 ADD CALLDATALOAD PUSH8 0xFFFFFFFFFFFFFFFF DUP2 GT ISZERO PUSH2 0x9B0 JUMPI PUSH2 0x9AF PUSH2 0x67A JUMP JUMPDEST JUMPDEST PUSH2 0x9BC DUP6 DUP3 DUP7 ADD PUSH2 0x925 JUMP JUMPDEST SWAP3 POP SWAP3 POP POP SWAP3 POP SWAP3 SWAP1 POP JUMP JUMPDEST PUSH2 0x9D1 DUP2 PUSH2 0x711 JUMP JUMPDEST DUP2 EQ PUSH2 0x9DC JUMPI PUSH1 0x0 DUP1 REVERT JUMPDEST POP JUMP JUMPDEST PUSH1 0x0 DUP2 CALLDATALOAD SWAP1 POP PUSH2 0x9EE DUP2 PUSH2 0x9C8 JUMP JUMPDEST SWAP3 SWAP2 POP POP JUMP JUMPDEST PUSH1 0x0 PUSH1 0x20 DUP3 DUP5 SUB SLT ISZERO PUSH2 0xA0A JUMPI PUSH2 0xA09 PUSH2 0x675 JUMP JUMPDEST JUMPDEST PUSH1 0x0 PUSH2 0xA18 DUP5 DUP3 DUP6 ADD PUSH2 0x9DF JUMP JUMPDEST SWAP2 POP POP SWAP3 SWAP2 POP POP JUMP JUMPDEST PUSH1 0x0 PUSH1 0x20 DUP3 ADD SWAP1 POP DUP2 DUP2 SUB PUSH1 0x0 DUP4 ADD MSTORE PUSH2 0xA3B DUP2 DUP5 PUSH2 0x789 JUMP JUMPDEST SWAP1 POP SWAP3 SWAP2 POP POP JUMP JUMPDEST PUSH32 0x4E487B7100000000000000000000000000000000000000000000000000000000 PUSH1 0x0 MSTORE PUSH1 0x22 PUSH1 0x4 MSTORE PUSH1 0x24 PUSH1 0x0 REVERT JUMPDEST PUSH1 0x0 PUSH1 0x2 DUP3 DIV SWAP1 POP PUSH1 0x1 DUP3 AND DUP1 PUSH2 0xA8A JUMPI PUSH1 0x7F DUP3 AND SWAP2 POP JUMPDEST PUSH1 0x20 DUP3 LT DUP2 SUB PUSH2 0xA9D JUMPI PUSH2 0xA9C PUSH2 0xA43 JUMP JUMPDEST JUMPDEST POP SWAP2 SWAP1 POP JUMP JUMPDEST PUSH32 0x496E76616C696420506F73742049440000000000000000000000000000000000 PUSH1 0x0 DUP3 ADD MSTORE POP JUMP JUMPDEST PUSH1 0x0 PUSH2 0xAD9 PUSH1 0xF DUP4 PUSH2 0x73D JUMP JUMPDEST SWAP2 POP PUSH2 0xAE4 DUP3 PUSH2 0xAA3 JUMP JUMPDEST PUSH1 0x20 DUP3 ADD SWAP1 POP SWAP2 SWAP1 POP JUMP JUMPDEST PUSH1 0x0 PUSH1 0x20 DUP3 ADD SWAP1 POP DUP2 DUP2 SUB PUSH1 0x0 DUP4 ADD MSTORE PUSH2 0xB08 DUP2 PUSH2 0xACC JUMP JUMPDEST SWAP1 POP SWAP2 SWAP1 POP JUMP JUMPDEST PUSH32 0x4E487B7100000000000000000000000000000000000000000000000000000000 PUSH1 0x0 MSTORE PUSH1 0x11 PUSH1 0x4 MSTORE PUSH1 0x24 PUSH1 0x0 REVERT JUMPDEST PUSH1 0x0 PUSH2 0xB49 DUP3 PUSH2 0x67F JUMP JUMPDEST SWAP2 POP PUSH32 0xFFFFFFFFFFFFFFFFFFFFFFFFFFFFFFFFFFFFFFFFFFFFFFFFFFFFFFFFFFFFFFFF DUP3 SUB PUSH2 0xB7B JUMPI PUSH2 0xB7A PUSH2 0xB0F JUMP JUMPDEST JUMPDEST PUSH1 0x1 DUP3 ADD SWAP1 POP SWAP2 SWAP1 POP JUMP JUMPDEST PUSH32 0x4E487B7100000000000000000000000000000000000000000000000000000000 PUSH1 0x0 MSTORE PUSH1 0x41 PUSH1 0x4 MSTORE PUSH1 0x24 PUSH1 0x0 REVERT JUMPDEST PUSH1 0x0 DUP2 SWAP1 POP DUP2 PUSH1 0x0 MSTORE PUSH1 0x20 PUSH1 0x0 KECCAK256 SWAP1 POP SWAP2 SWAP1 POP JUMP JUMPDEST PUSH1 0x0 PUSH1 0x20 PUSH1 0x1F DUP4 ADD DIV SWAP1 POP SWAP2 SWAP1 POP JUMP JUMPDEST PUSH1 0x0 DUP3 DUP3 SHL SWAP1 POP SWAP3 SWAP2 POP POP JUMP JUMPDEST PUSH1 0x0 PUSH1 0x8 DUP4 MUL PUSH2 0xC17 PUSH32 0xFFFFFFFFFFFFFFFFFFFFFFFFFFFFFFFFFFFFFFFFFFFFFFFFFFFFFFFFFFFFFFFF DUP3 PUSH2 0xBDA JUMP JUMPDEST PUSH2 0xC21 DUP7 DUP4 PUSH2 0xBDA JUMP JUMPDEST SWAP6 POP DUP1 NOT DUP5 AND SWAP4 POP DUP1 DUP7 AND DUP5 OR SWAP3 POP POP POP SWAP4 SWAP3 POP POP POP JUMP JUMPDEST PUSH1 0x0 DUP2 SWAP1 POP SWAP2 SWAP1 POP JUMP JUMPDEST PUSH1 0x0 PUSH2 0xC5E PUSH2 0xC59 PUSH2 0xC54 DUP5 PUSH2 0x67F JUMP JUMPDEST PUSH2 0xC39 JUMP JUMPDEST PUSH2 0x67F JUMP JUMPDEST SWAP1 POP SWAP2 SWAP1 POP JUMP JUMPDEST PUSH1 0x0 DUP2 SWAP1 POP SWAP2 SWAP1 POP JUMP JUMPDEST PUSH2 0xC78 DUP4 PUSH2 0xC43 JUMP JUMPDEST PUSH2 0xC8C PUSH2 0xC84 DUP3 PUSH2 0xC65 JUMP JUMPDEST DUP5 DUP5 SLOAD PUSH2 0xBE7 JUMP JUMPDEST DUP3 SSTORE POP POP POP POP JUMP JUMPDEST PUSH1 0x0 SWAP1 JUMP JUMPDEST PUSH2 0xCA1 PUSH2 0xC94 JUMP JUMPDEST PUSH2 0xCAC DUP2 DUP5 DUP5 PUSH2 0xC6F JUMP JUMPDEST POP POP POP JUMP JUMPDEST JUMPDEST DUP2 DUP2 LT ISZERO PUSH2 0xCD0 JUMPI PUSH2 0xCC5 PUSH1 0x0 DUP3 PUSH2 0xC99 JUMP JUMPDEST PUSH1 0x1 DUP2 ADD SWAP1 POP PUSH2 0xCB2 JUMP JUMPDEST POP POP JUMP JUMPDEST PUSH1 0x1F DUP3 GT ISZERO PUSH2 0xD15 JUMPI PUSH2 0xCE6 DUP2 PUSH2 0xBB5 JUMP JUMPDEST PUSH2 0xCEF DUP5 PUSH2 0xBCA JUMP JUMPDEST DUP2 ADD PUSH1 0x20 DUP6 LT ISZERO PUSH2 0xCFE JUMPI DUP2 SWAP1 POP JUMPDEST PUSH2 0xD12 PUSH2 0xD0A DUP6 PUSH2 0xBCA JUMP JUMPDEST DUP4 ADD DUP3 PUSH2 0xCB1 JUMP JUMPDEST POP POP JUMPDEST POP POP POP JUMP JUMPDEST PUSH1 0x0 DUP3 DUP3 SHR SWAP1 POP SWAP3 SWAP2 POP POP JUMP JUMPDEST PUSH1 0x0 PUSH2 0xD38 PUSH1 0x0 NOT DUP5 PUSH1 0x8 MUL PUSH2 0xD1A JUMP JUMPDEST NOT DUP1 DUP4 AND SWAP2 POP POP SWAP3 SWAP2 POP POP JUMP JUMPDEST PUSH1 0x0 PUSH2 0xD51 DUP4 DUP4 PUSH2 0xD27 JUMP JUMPDEST SWAP2 POP DUP3 PUSH1 0x2 MUL DUP3 OR SWAP1 POP SWAP3 SWAP2 POP POP JUMP JUMPDEST PUSH2 0xD6A DUP3 PUSH2 0x732 JUMP JUMPDEST PUSH8 0xFFFFFFFFFFFFFFFF DUP2 GT ISZERO PUSH2 0xD83 JUMPI PUSH2 0xD82 PUSH2 0xB86 JUMP JUMPDEST JUMPDEST PUSH2 0xD8D DUP3 SLOAD PUSH2 0xA72 JUMP JUMPDEST PUSH2 0xD98 DUP3 DUP3 DUP6 PUSH2 0xCD4 JUMP JUMPDEST PUSH1 0x0 PUSH1 0x20 SWAP1 POP PUSH1 0x1F DUP4 GT PUSH1 0x1 DUP2 EQ PUSH2 0xDCB JUMPI PUSH1 0x0 DUP5 ISZERO PUSH2 0xDB9 JUMPI DUP3 DUP8 ADD MLOAD SWAP1 POP JUMPDEST PUSH2 0xDC3 DUP6 DUP3 PUSH2 0xD45 JUMP JUMPDEST DUP7 SSTORE POP PUSH2 0xE2B JUMP JUMPDEST PUSH1 0x1F NOT DUP5 AND PUSH2 0xDD9 DUP7 PUSH2 0xBB5 JUMP JUMPDEST PUSH1 0x0 JUMPDEST DUP3 DUP2 LT ISZERO PUSH2 0xE01 JUMPI DUP5 DUP10 ADD MLOAD DUP3 SSTORE PUSH1 0x1 DUP3 ADD SWAP2 POP PUSH1 0x20 DUP6 ADD SWAP5 POP PUSH1 0x20 DUP2 ADD SWAP1 POP PUSH2 0xDDC JUMP JUMPDEST DUP7 DUP4 LT ISZERO PUSH2 0xE1E JUMPI DUP5 DUP10 ADD MLOAD PUSH2 0xE1A PUSH1 0x1F DUP10 AND DUP3 PUSH2 0xD27 JUMP JUMPDEST DUP4 SSTORE POP JUMPDEST PUSH1 0x1 PUSH1 0x2 DUP9 MUL ADD DUP9 SSTORE POP POP POP JUMPDEST POP POP POP POP POP POP JUMP JUMPDEST DUP3 DUP2 DUP4 CALLDATACOPY PUSH1 0x0 DUP4 DUP4 ADD MSTORE POP POP POP JUMP JUMPDEST PUSH1 0x0 PUSH2 0xE4E DUP4 DUP6 PUSH2 0x73D JUMP JUMPDEST SWAP4 POP PUSH2 0xE5B DUP4 DUP6 DUP5 PUSH2 0xE33 JUMP JUMPDEST PUSH2 0xE64 DUP4 PUSH2 0x778 JUMP JUMPDEST DUP5 ADD SWAP1 POP SWAP4 SWAP3 POP POP POP JUMP JUMPDEST PUSH1 0x0 PUSH1 0x80 DUP3 ADD SWAP1 POP PUSH2 0xE84 PUSH1 0x0 DUP4 ADD DUP9 PUSH2 0x6E2 JUMP JUMPDEST PUSH2 0xE91 PUSH1 0x20 DUP4 ADD DUP8 PUSH2 0x723 JUMP JUMPDEST DUP2 DUP2 SUB PUSH1 0x40 DUP4 ADD MSTORE PUSH2 0xEA4 DUP2 DUP6 DUP8 PUSH2 0xE42 JUMP JUMPDEST SWAP1 POP PUSH2 0xEB3 PUSH1 0x60 DUP4 ADD DUP5 PUSH2 0x6E2 JUMP JUMPDEST SWAP7 SWAP6 POP POP POP POP POP POP JUMP JUMPDEST PUSH1 0x0 DUP3 SWAP1 POP SWAP3 SWAP2 POP POP JUMP JUMPDEST PUSH2 0xED2 DUP4 DUP4 PUSH2 0xEBD JUMP JUMPDEST PUSH8 0xFFFFFFFFFFFFFFFF DUP2 GT ISZERO PUSH2 0xEEB JUMPI PUSH2 0xEEA PUSH2 0xB86 JUMP JUMPDEST JUMPDEST PUSH2 0xEF5 DUP3 SLOAD PUSH2 0xA72 JUMP JUMPDEST PUSH2 0xF00 DUP3 DUP3 DUP6 PUSH2 0xCD4 JUMP JUMPDEST PUSH1 0x0 PUSH1 0x1F DUP4 GT PUSH1 0x1 DUP2 EQ PUSH2 0xF2F JUMPI PUSH1 0x0 DUP5 ISZERO PUSH2 0xF1D JUMPI DUP3 DUP8 ADD CALLDATALOAD SWAP1 POP JUMPDEST PUSH2 0xF27 DUP6 DUP3 PUSH2 0xD45 JUMP JUMPDEST DUP7 SSTORE POP PUSH2 0xF8F JUMP JUMPDEST PUSH1 0x1F NOT DUP5 AND PUSH2 0xF3D DUP7 PUSH2 0xBB5 JUMP JUMPDEST PUSH1 0x0 JUMPDEST DUP3 DUP2 LT ISZERO PUSH2 0xF65 JUMPI DUP5 DUP10 ADD CALLDATALOAD DUP3 SSTORE PUSH1 0x1 DUP3 ADD SWAP2 POP PUSH1 0x20 DUP6 ADD SWAP5 POP PUSH1 0x20 DUP2 ADD SWAP1 POP PUSH2 0xF40 JUMP JUMPDEST DUP7 DUP4 LT ISZERO PUSH2 0xF82 JUMPI DUP5 DUP10 ADD CALLDATALOAD PUSH2 0xF7E PUSH1 0x1F DUP10 AND DUP3 PUSH2 0xD27 JUMP JUMPDEST DUP4 SSTORE POP JUMPDEST PUSH1 0x1 PUSH1 0x2 DUP9 MUL ADD DUP9 SSTORE POP POP POP JUMPDEST POP POP POP POP POP POP POP JUMP JUMPDEST PUSH1 0x0 PUSH1 0x40 DUP3 ADD SWAP1 POP PUSH2 0xFAD PUSH1 0x0 DUP4 ADD DUP7 PUSH2 0x723 JUMP JUMPDEST DUP2 DUP2 SUB PUSH1 0x20 DUP4 ADD MSTORE PUSH2 0xFC0 DUP2 DUP5 DUP7 PUSH2 0xE42 JUMP JUMPDEST SWAP1 POP SWAP5 SWAP4 POP POP POP POP JUMP INVALID LOG2 PUSH5 0x6970667358 0x22 SLT KECCAK256 0xB4 0xE5 BASEFEE PUSH24 0xCE4E7476580F71AC27274A4F4AD3A82EE3EB5C0D6639C0D3 BALANCE LOG1 0xEE PUSH2 0x6473 PUSH16 0x6C634300081100330000000000000000 "
				},
				"gasEstimates": {
					"creation": {
						"codeDepositCost": "819200",
						"executionCost": "851",
						"totalCost": "820051"
					},
					"external": {
						"createPost(string)": "infinite",
						"getPost(uint256)": "infinite",
						"postCount()": "2429",
						"posts(uint256)": "infinite",
						"setUsername(string)": "infinite",
						"usernames(address)": "infinite"
					}
				},
				"methodIdentifiers": {
					"createPost(string)": "c7303c61",
					"getPost(uint256)": "40731c24",
					"postCount()": "17906c2e",
					"posts(uint256)": "0b1e7f83",
					"setUsername(string)": "ed59313a",
					"usernames(address)": "ee91877c"
				}
			},
			"storageLayout": {
				"storage": [
					{
						"astId": 15,
						"contract": "contracts/Web3SocialMedia.sol:Web3SocialMedia",
						"label": "posts",
						"offset": 0,
						"slot": "0",
						"type": "t_mapping(t_uint256,t_struct(Post)10_storage)"
					},
					{
						"astId": 17,
						"contract": "contracts/Web3SocialMedia.sol:Web3SocialMedia",
						"label": "postCount",
						"offset": 0,
						"slot": "1",
						"type": "t_uint256"
					},
					{
						"astId": 21,
						"contract": "contracts/Web3SocialMedia.sol:Web3SocialMedia",
						"label": "usernames",
						"offset": 0,
						"slot": "2",
						"type": "t_mapping(t_address,t_string_storage)"
					}
				],
				"types": {
					"t_address": {
						"encoding": "inplace",
						"label": "address",
						"numberOfBytes": "20"
					},
					"t_mapping(t_address,t_string_storage)": {
						"encoding": "mapping",
						"key": "t_address",
						"label": "mapping(address => string)",
						"numberOfBytes": "32",
						"value": "t_string_storage"
					},
					"t_mapping(t_uint256,t_struct(Post)10_storage)": {
						"encoding": "mapping",
						"key": "t_uint256",
						"label": "mapping(uint256 => struct Web3SocialMedia.Post)",
						"numberOfBytes": "32",
						"value": "t_struct(Post)10_storage"
					},
					"t_string_storage": {
						"encoding": "bytes",
						"label": "string",
						"numberOfBytes": "32"
					},
					"t_struct(Post)10_storage": {
						"encoding": "inplace",
						"label": "struct Web3SocialMedia.Post",
						"members": [
							{
								"astId": 3,
								"contract": "contracts/Web3SocialMedia.sol:Web3SocialMedia",
								"label": "id",
								"offset": 0,
								"slot": "0",
								"type": "t_uint256"
							},
							{
								"astId": 5,
								"contract": "contracts/Web3SocialMedia.sol:Web3SocialMedia",
								"label": "author",
								"offset": 0,
								"slot": "1",
								"type": "t_address"
							},
							{
								"astId": 7,
								"contract": "contracts/Web3SocialMedia.sol:Web3SocialMedia",
								"label": "content",
								"offset": 0,
								"slot": "2",
								"type": "t_string_storage"
							},
							{
								"astId": 9,
								"contract": "contracts/Web3SocialMedia.sol:Web3SocialMedia",
								"label": "timestamp",
								"offset": 0,
								"slot": "3",
								"type": "t_uint256"
							}
						],
						"numberOfBytes": "128"
					},
					"t_uint256": {
						"encoding": "inplace",
						"label": "uint256",
						"numberOfBytes": "32"
					}
				}
			},
			"userdoc": {
				"kind": "user",
				"methods": {},
				"version": 1
			}
		}
	}
}